:020000040800F2
:10000000B0DB0120FD020008671D00085F1D00082D
:10001000631D000841090008ED21000800000000F0
:100020000000000000000000000000003D02000889
:10003000450900080000000099020008691D000839
:100040002103000821030008210300082103000800
:1000500021030008210300082103000821030008F0
:1000600021030008210300082103000821030008E0
:1000700021030008210300082103000821030008D0
:1000800021030008210300082103000821030008C0
:1000900021030008210300082103000821030008B0
:1000A00021030008210300082103000821030008A0
:1000B0002103000821030008210300082103000890
:1000C0002103000821030008210300082103000880
:1000D000210300089D2100082103000821030008D6
:1000E0002103000821030008210300082103000860
:1000F0002103000821030008210300082103000850
:10010000210300082103000821030008210300083F
:100110002103000821030008911D000821030008A5
:10012000210300082103000821030008210300081F
:10013000210300082103000821030008210300080F
:1001400021030008210300082103000821030008FF
:1001500021030008210300082103000821030008EF
:1001600021030008210300082103000821030008DF
:1001700021030008210300082103000800000000FB
:10018000210300082103000800F002F800F047F8FE
:100190000AA090E8000C82448344AAF10107DA45E2
:1001A00001D100F03CF8AFF2090EBAE80F0013F0ED
:1001B000010F18BFFB1A43F001031847C4AC00003D
:1001C000E4AC0000103A24BF78C878C1FAD85207CE
:1001D00024BF30C830C144BF04680C6070470000C1
:1001E0000023002400250026103A28BF78C1FBD840
:1001F000520728BF30C148BF0B607047702900F01C
:10020000D581642900F09681732900F0FA820020DC
:1002100070471FB507F03CFE1FBD10B510BD00F0C4
:100220005FFB1146FFF7F5FF05F0DCF900F07DFB01
:1002300003B4FFF7F2FF03BC01F0F6FF2C4B196883
:100240000868B0E8F04F80F30988BFF36F8F4FF074
:10025000000080F311887047000000000848006823
:10026000006880F308884FF0000080F3148862B6BD
:1002700061B6BFF34F8FBFF36F8F00DF00BF00BFCA
:1002800008ED00E0DFF80C00016841F47001016046
:10029000704700BF88ED00E0EFF30980BFF36F8F78
:1002A000134B1A681EF0100F08BF20ED108A20E9CA
:1002B000F04F106009B44FF0500080F31188BFF385
:1002C0004F8FBFF36F8F06F0EFFD4FF0000080F30C
:1002D000118809BC19680868B0E8F04F1EF0100FCB
:1002E00008BFB0EC108A80F30988BFF36F8F7047A6
:1002F00054000020EFF30580704700000C480168AF
:1003000041F4700101600B4880470B480047FEE74D
:10031000FEE7FEE7FEE7FEE7FEE7FEE7FEE7FEE7B5
:10032000FEE7000005480649044A064B70470000F6
:1003300088ED00E07D1D000889010008B0D701208C
:10034000B0DB0120B0D70120704753EA020C00F067
:1003500069802DE9F04B4FF00006002B1FBFB3FA68
:1003600083F503FA05F424FA05F65E4012BF16433E
:10037000B2FA82F502FA05F4C5F120051EBF22FA91
:1003800005FC44EA0C04203556EA044C4FEA1444B8
:1003900018BF641C4FF000084FF00009904271EB49
:1003A000030C39D3002919BFB1FA81F701FA07F616
:1003B000B0FA80F700FA07F6C7F120071EBF20FA4F
:1003C00007FC46EA0C062037B6FBF4FCA7EB050752
:1003D000103F07F01F0BCBF120060CFA0BFB2CFA99
:1003E00006F644BFB3460026202FA4BF5E464FF05A
:1003F000000B5BEA060C08BF4FF0010B19EB0B0971
:10040000ABFB027C48EB0608C01B06FB02CC0BFBD7
:1004100003CC71EB0C01C1E70B460246414648464E
:10042000BDE8F08B13B54FF000004FF00001AFF3C3
:100430000080BDE81C4070470FB4044910B503AA02
:10044000029800F0E3F910BC5DF814FB10000020E6
:100450000FB41CB5074B06AA7B446946009005986B
:1004600000F0A5F90020694600F0B4F91CBC5DF865
:1004700014FB0000790300002DE9F0410E4604460C
:10048000002020622046E168884730B3252805D047
:10049000D4E901219047206A401CF2E7E168204638
:1004A00000278847050018D0A5F14100192802D877
:1004B00020354FF400673246294620462760FFF773
:1004C0009DFE40B1012804D0F61D26F0070608362F
:1004D000D8E7361DD6E72846DAE7206ABDE8F0817E
:1004E00070B50C460546012A05D02878800600D54F
:1004F000EA69002302E0012305E05B1C934202D27B
:10050000E05C0028F9D1A869E618C01AA861286A39
:10051000184428622846AFF3008004E0D5E90121A1
:1005200014F8010B9047B442F8D32846AFF300808B
:1005300070BD00002DE9F0410646002410687529C1
:10054000314616A510D0AFF30080002802DA4042F1
:1005500013A507E031688A0701D512A502E0490713
:1005600004D511A5012401E0AFF3008000210A2287
:1005700006F1240709E0B0FBF2FCB0FBF2F302FB4A
:100580001C00303078541846491C0028F3D123460B
:100590002A463046BDE8F04100F0AAB8000000004D
:1005A0002D0000002B00000020000000F0B41368B4
:1005B00002680824C4610C4642F020020260110562
:1005C00002D50E4A7A4402E00C4A7A440E320021E7
:1005D00000F1240505E003F00F061B09965D6E543B
:1005E000491C002BF7D105782D0703D5702C01D1BC
:1005F00001231032F0BC00F07BB8000090A800008E
:10060000032A40F2308010F0030C00F0158011F83E
:10061000013BBCF1020F624498BF11F801CB00F816
:10062000013B38BF11F8013BA2F1040298BF00F86A
:1006300001CB38BF00F8013B11F0030300F0F88054
:10064000083AC0F0088051F8043B083A51F804CB4E
:10065000A0E80810F5E7121D5CBF51F8043B40F814
:10066000043BAFF30080D20724BF11F8013B11F81F
:1006700001CB48BF11F8012B24BF00F8013B00F863
:1006800001CB48BF00F8012B704702F0FF0343EA9B
:10069000032242EA024200F0FFB84FF0000200B528
:1006A000134694469646203922BFA0E80C50A0E895
:1006B0000C50B1F12001BFF4F7AF090728BFA0E843
:1006C0000C5048BF0CC05DF804EB890028BF40F80F
:1006D000042B08BF704748BF20F8022B11F0804F51
:1006E00018BF00F8012B704770477047704770477C
:1006F0002DE9F0470D4699469246044600F124083C
:100700000168880604D5E06921F01001216000E04D
:100710000120A84201DD471B00E00027A1697A19EA
:1007200002EB0900081AA0612078C00602D4204616
:10073000AFF30080002608E0D4E901211AF8060092
:100740009047206A401C761C20624E45F4DB2078DE
:10075000C0060AD52046AFF3008006E0D4E90121A7
:1007600030209047206A401C2062381EA7F1010704
:10077000F4DC07E0D4E9012118F805009047206A6D
:10078000401C2062281EA5F10105F3DC2046AFF3D2
:1007900000802078000602D50220BDE8F087012005
:1007A000FBE7000001694A1C02610878704700B548
:1007B0008FB0CDE901310021059105497944CDE99A
:1007C000031011466846FFF757FE0FB000BD00004A
:1007D000E5FFFFFF0A6802F8010B0A60704710B5D9
:1007E000436913B1AFF3008001E0FFF779FE012008
:1007F00010BD127800F124010A7000224A70012213
:10080000EDE711684FF0FF32E9E70000074B70B5E4
:100810000D467B44FFF7CBFF0446284600F05CF80A
:1008200010B14FF0FF3070BD204670BDAF1A000010
:1008300010B5203AC0F00B80B1E81850203AA0E87B
:100840001850B1E81850A0E81850BFF4F5AF5FEAAF
:10085000027C24BFB1E81850A0E8185044BF18C962
:1008600018C0BDE810405FEA827C24BF51F8043B09
:1008700040F8043B08BF7047D20728BF31F8023B5D
:1008800048BF11F8012B28BF20F8023B48BF00F8F1
:10089000012B70474FF000020429C0F0128010F0C5
:1008A000030C3FF4FCAECCF1040CBCF1020F18BFFA
:1008B00000F8012BA8BF20F8022BA1EB0C01FFF7D9
:1008C000EEBE5FEAC17C24BF00F8012B00F8012BCB
:1008D00048BF00F8012B7047007B00F08000704794
:1008E000754600F029F8AE4605006946534620F0EB
:1008F0000700854618B020B5FFF714FDBDE820407D
:100900004FF000064FF000074FF000084FF0000BCB
:1009100021F00701AC46ACE8C009ACE8C009ACE87E
:10092000C009ACE8C0098D4670470446AFF30080AB
:100930002046FFF77DFC0000004870474CD701209F
:1009400000BFFEE77047000070B504461D46002357
:10095000B5F5804F13D154F822300C480340D1E94B
:10096000000640EA06108E6840EA06208E8940EABA
:1009700006408E693043034344F8223003E06FF0B1
:10098000704044F82200002070BD00000000F0CF4D
:1009900010B503460022086853F820201248024090
:1009A000D1E901042043CC6820430C6920434C6901
:1009B00020438C692043CC6920430C6A20434C6A55
:1009C00020438C6A2043CC6A2043CC6B20430C6BC1
:1009D000204302438868082801D142F04002086899
:1009E00043F82020002010BD8000F0FF30B5034602
:1009F0000024501C53F8204004F04044D1E9000585
:100A000040EA05108D6840EA05208D8940EA0545D9
:100A1000088A401E45EA0055087D801E45EA0060B0
:100A20008D6928430443501C43F82040002030BD0A
:100A300070B50446A56D00F085F9064694F83500BA
:100A4000022808D08020606500BF002084F83400B0
:100A500000BF012070BD2068006820F016002168EA
:100A600008602068406920F0800021684861206C9F
:100A700008B9A06C28B12068006820F0080021683F
:100A800008602068006820F00100216808600FE01D
:100A900000F058F9801B05280AD92020606500BFA6
:100AA000002084F8340000BF032084F83500D1E72B
:100AB0002068006800F001000028E9D194F85C107B
:100AC0003F208840A86000BF002084F8340000BFA9
:100AD000012084F835000020BCE7014691F835007C
:100AE000022803D08020486501207047052081F846
:100AF00035000868006820F001000A6810600020D6
:100B0000F3E70000F8B502460B460025002400205C
:100B10000021DEE0012606FA01F51E6806EA05045A
:100B2000AC4275D11E7906F00306012E04D01E7961
:100B300006F00306022E13D190684F000326BE4034
:100B4000B0434F00DE68BE403043906050680126DD
:100B50008E40B0431E79C6F300168E40304350607D
:100B60001E7906F00306032E09D0D0684F00032635
:100B7000BE40B0434F009E68BE403043D0601E79F7
:100B800006F00306022E13D1CF0802F1200656F814
:100B900027004E07F70E0F26BE40B0434F07FF0E4B
:100BA0001E69BE403043CF0802F1200646F82700F8
:100BB00010684F000326BE40B0431E7906F00306BE
:100BC0004F00BE40304310605E6806F08056B6F1BC
:100BD000805F7DD100BF00260096404E366846F407
:100BE00080463E4F3E603E46366806F4804600969C
:100BF00000BF00BF3A4E8F0856F827008E07370F08
:100C00000F26BE40B043374EB24202D1002624E048
:100C10005EE0354EB24201D101261EE0334EB242B3
:100C200001D1022619E0324EB24201D1032614E06E
:100C3000304EB24201D104260FE02F4EB24201D114
:100C400005260AE02D4EB24201D1062605E02C4EC3
:100C5000B24201D1072600E008268F073F0FBE40B1
:100C600030431F4E8F0846F82700264E3068A043B9
:100C70005E6806F48036B6F5803F00D12043214EF1
:100C80003060361D3068A0435E6806F40036B6F565
:100C9000003F00D120431B4E361D3060361D3068AA
:100CA000A0435E6806F48016B6F5801F00D120438D
:100CB000144E08363060361D3068A0435E6806F476
:100CC0000016B6F5001F00D120430E4E0C363060E2
:100CD000491C1029FFF41EAFF8BD00004438024043
:100CE00008380140000002400004024000080240B1
:100CF000000C0240001002400014024000180240A4
:100D0000001C0240003C0140024613690B400BB13D
:100D1000012000E00020704710B5426921EA02037B
:100D200002EA010443EA0443836110BD0AB1816110
:100D300001E00B048361704701480068000C7047B4
:100D4000002004E0014800687047000018000020FF
:100D5000034800680349097808440149086070475E
:100D6000180000202000002010B50A48006840F458
:100D70000070084908600846006840F48060086018
:100D8000032000F07FF80F2000F006F800F02AF8AA
:100D9000002010BD003C024070B504460E480078AB
:100DA0004FF47A71B1FBF0F00C490968B1FBF0F532
:100DB000284600F09BFC08B1012070BD102C07D222
:100DC00000222146501E00F01EF80548046001E094
:100DD0000120F2E70020F0E72000002000000020C2
:100DE0001C000020704701460846002809DB00F07F
:100DF0001F0301229A4043099B0003F1E023C3F83B
:100E0000002100BF70472DE9F05F80460D46164671
:100E1000002701F0EDF9074639462A46334601F02E
:100E20000700C0F1070ABAF1040F02D94FF0040A13
:100E300001E0C0F1070AD14600F1040ABAF1070F38
:100E400002D24FF0000A01E0A0F1030AD4464FF0AD
:100E5000010A0AFA09FAAAF1010A0AEA020A0AFAD6
:100E60000CFA4FF0010B0BFA0CFBABF1010B0BEA88
:100E7000030B4AEA0B042146404601F0C1F9BDE8E4
:100E8000F09F000000BF00F00702064B19684FF604
:100E9000FF031940044B0B4343EA0221014B196045
:100EA00000BF70470CED00E00000FA0570B5044685
:100EB0000D460CB9012070BD5848006800F00700CD
:100EC000A84209D255490D700846006800F0070095
:100ED000A84201D00120EEE7207800F002000228AD
:100EE0001DD1207800F00400042805D14C4800688A
:100EF00040F4E0504A490860207800F008000828D3
:100F000005D14748006840F46040454908604448BE
:100F1000006820F0F000A16808434149086020788B
:100F200000F00100A8B36068012807D13C480838E8
:100F30000068C0F34040B8B90120BCE760680228EF
:100F400002D06068032807D1354808380068C0F32C
:100F5000406048B90120AEE7314808380068C0F366
:100F6000400008B90120A6E72D48006820F00300E2
:100F7000616808432A490860FFF7E4FE064609E075
:100F8000FFF7E0FE801B41F28831884202D903203E
:100F900091E707E02248006800F00C006168B0EBC0
:100FA000810FEDD11D48006800F00700A84209D963
:100FB0001A490D700846006800F00700A84201D0E9
:100FC000012078E7207800F00400042807D11448B5
:100FD000006820F4E050E168084311490860207877
:100FE00000F00800082808D10D48006820F460408F
:100FF000216940EAC1000A49086000F03FF8084949
:101000000968C1F30311074A515CC84006490860EA
:1010100006480068FFF7C0FE00204CE7003C024095
:10102000083802409A7E0008000000201C000020C2
:1010300001480068704700000000002000B5FFF77D
:10104000F7FF04490968C1F38221034A515CC84093
:1010500000BD000008380240AA7E000800B5FFF776
:10106000E7FF04490968C1F34231034A515CC840B3
:1010700000BD000008380240AA7E00082DE9F047B4
:10108000002400250026A1462548006800F00C0039
:1010900020B1042805D008283AD105E0DFF8849073
:1010A00039E0DFF8849036E01D48001F006800F04A
:1010B0003F041B48001F006800F4800078B11A4804
:1010C0001749091F0968C1F38811A0FB0170014687
:1010D000224600233846FFF738F905460EE011484E
:1010E0000F49091F0968C1F38811A0FB017001466F
:1010F000224600233846FFF728F905460848001F16
:101100000068C0F30140401C4600B5FBF6F902E060
:10111000DFF8109000BF00BF4846BDE8F087000030
:10112000083802400024F40000127A00F8B50446A2
:101130000CB90120F8BD207800F00100002874D01F
:10114000F948006800F00C0004280DD0F64800684B
:1011500000F00C00082813D1F348001F006800F4C9
:101160008000B0F5800F0BD1EF4808380068C0F35D
:101170004040002859D06068002856D10120D9E7A6
:1011800000BF6068B0F5803F08D1E74808380068C4
:1011900040F48030E449083908601EE06068B0F52A
:1011A000A02F0DD1E0480838006840F48020DE49C7
:1011B000083908600846006840F4803008600CE098
:1011C000D9480838006820F48030D74908390860C9
:1011D0000846006820F48020086000BF606890B175
:1011E000FFF7B0FD054606E0FFF7ACFD401B6428A5
:1011F00001D903209EE7CC4808380068C0F340407E
:101200000028F1D011E0FFF79DFD054606E0FFF74D
:1012100099FD401B642801D903208BE7C248083898
:101220000068C0F340400028F1D1207800F00200AF
:1012300002285FD1BC48006800F00C0058B1BA48E1
:10124000006800F00C0008281CD1B748001F006897
:1012500000F48000B0B9B44808380068C0F340001A
:1012600020B1E068012801D0012063E7AE480838CA
:10127000006820F0F800216940EAC100AA49083955
:10128000086037E0E06800B30120A8490860FFF774
:1012900059FD054606E0FFF755FD401B022801D920
:1012A000032047E7A04808380068C0F34000002842
:1012B000F1D09D480838006820F0F800216940EA24
:1012C000C10099490839086014E000209749086076
:1012D000FFF738FD054606E0FFF734FD401B022806
:1012E00001D9032026E7904808380068C0F3400081
:1012F0000028F1D1207800F0080008282CD160697E
:10130000A8B101208A490860FFF71CFD054606E0E8
:10131000FFF718FD401B022801D903200AE7824885
:101320006C300068C0F340000028F1D014E00020C9
:101330007F490860FFF706FD054606E0FFF702FD5E
:10134000401B022801D90320F4E677486C3000687E
:10135000C0F340000028F1D1207800F004000428F8
:1013600070D1002770483830006800F0805090B984
:1013700000BF002000906C483830006840F080507A
:101380006949383108600846006800F080500090D4
:1013900000BF00BF01276748006800F48070B0B943
:1013A0006448006840F4807062490860FFF7CAFC36
:1013B000054606E0FFF7C6FC401B022801D90320C2
:1013C000B8E65C48006800F480700028F2D000BFE6
:1013D000A068012808D154486830006840F0010036
:1013E0005149683108601DE0A06805280DD14E48BC
:1013F0006830006840F004004B49683108600846D6
:10140000006840F0010008600CE047486830006860
:1014100020F001004449683108600846006820F067
:101420000400086000BFA068A8B1FFF78BFC054668
:1014300009E0FFF787FC401B41F28831884202D95E
:10144000032077E626E0384868300068C0F34000A3
:101450000028EED013E0FFF775FC054608E0FFF723
:1014600071FC401B41F28831884201D9032061E6BA
:101470002D4868300068C0F340000028EFD1012FEC
:1014800007D129483830006820F08050264938318B
:10149000086000BFA069002845D02348006800F01C
:1014A0000C0008285DD0A069022845D100201F4902
:1014B0000866FFF747FC054606E0FFF743FC401BC4
:1014C000022801D9032035E6174808380068C0F320
:1014D00040600028F1D1D4E907010843616A40EA7D
:1014E00081110122A06AC2EB500041EA00412C2088
:1014F000005D41EA00600C49091F086001200B49AA
:101500000866FFF71FFC054606E0FFF71BFC401BC3
:10151000022801D903200DE6034808380068C0F30B
:1015200040600028F1D049E00838024000004742FE
:10153000800E474200700040002021490866FFF7F6
:1015400001FC054606E0FFF7FDFB401B022801D920
:101550000320EFE51B480068C0F340600028F2D18B
:101560002CE0A069012800D1E4E51648001D0668BA
:10157000A069012820D006F48001E06981421BD1D6
:1015800006F03F01206A814216D147F6C070304014
:10159000616AB0EB811F0FD106F440310122A06ACD
:1015A000C2EB5000B1EB004F06D106F070612C2069
:1015B000005DB1EB006F01D00120BBE50020B9E573
:1015C000000047420038024070B504460E461546FA
:1015D0000CB9012070BD94F8490028B9002084F8A6
:1015E0004800204600F01CF804F108012068FFF7CD
:1015F000CFF93146A2682068FFF7F8F92946236B36
:10160000D4E90102FFF7A0F9A168206850F8210091
:1016100040F00100A268216841F822000020D9E7CB
:1016200010B586B0044600BF002000902248006834
:1016300040F00100204908600846006800F0010001
:10164000009000BF00BF00BF002000901A4808387B
:10165000006840F00800184908390860084600682A
:1016600000F00800009000BF00BF00BF0020009005
:101670000846006840F0100008600846006800F066
:101680001000009000BF00BF4CF2037001900220D8
:10169000029001200390022004900C20059001A9E3
:1016A0000648FFF72FFA4FF68070019001A9044811
:1016B000FFF728FA06B010BD38380240000C02408F
:1016C00000100240042808D14FF0E021096941F0E0
:1016D00004014FF0E022116107E04FF0E0210969B9
:1016E00021F004014FF0E0221161704770B504460B
:1016F0002546681EB0F1807F01D301200FE0681EEF
:101700004FF0E02148610F214FF0FF3000F078FDED
:1017100000204FF0E021886107200861002070BDA3
:1017200070477047704710B5044620680069C0F3E1
:101730004000D8B12068C068C0F34000B0B16FF07D
:10174000020021680861012020772068806900F08C
:10175000030018B12046FFF7E5FF05E0204600F042
:10176000ADF8204600F0ABF8002020772068006933
:10177000C0F38000D8B12068C068C0F38000B0B169
:101780006FF00400216808610220207720688069DA
:1017900000F4407018B12046FFF7C4FF05E0204672
:1017A00000F08CF8204600F08AF8002020772068AE
:1017B0000069C0F3C000D8B12068C068C0F3C000A1
:1017C000B0B16FF00800216808610420207720681C
:1017D000C06900F0030018B12046FFF7A3FF05E041
:1017E000204600F06BF8204600F069F800202077D2
:1017F00020680069C0F30010D8B12068C068C0F349
:101800000010B0B16FF01000216808610820207747
:101810002068C06900F4407018B12046FFF782FFCD
:1018200005E0204600F04AF8204600F048F8002085
:1018300020772068006900F0010058B12068C06876
:1018400000F0010030B16FF001002168086120460E
:1018500000F036F820680069C0F3C01058B1206865
:10186000C068C0F3C01030B16FF08000216808611B
:101870002046FFF755FF20680069C0F3801058B17B
:101880002068C068C0F3801030B16FF0400021685C
:101890000861204600F026F820680069C0F3401077
:1018A00058B12068C068C0F3401030B16FF020001C
:1018B000216808612046FFF734FF10BD704770476C
:1018C00010B5044605492068884205D100BF0115BE
:1018D0000348FFF721FA00BF10BD000000100040D0
:1018E00000140240704770477047014600220023F1
:1018F00091F83D2091F83E3042EA03007047000025
:101900002DE9F84F0446206805682068C6682068FD
:1019100047694FF00009CA4605F00F09B9F1000FF9
:101920000AD105F0200038B106F0200020B1204691
:1019300000F06BFABDE8F88FB9F1000F72D007F034
:10194000010018B906F4907000286BD005F0010072
:1019500030B106F4807018B1206C40F001002064B2
:1019600005F0040030B107F0010018B1206C40F020
:101970000200206405F0020030B107F0010018B148
:10198000206C40F00400206405F0080048B106F027
:10199000200010B907F0010018B1206C40F00800D9
:1019A0002064206C70B305F0200028B106F0200000
:1019B00010B1204600F029FA20684069C0F3801A6F
:1019C000206C00F0080010B9BAF1000F23D02046B7
:1019D00000F0F0F92068406900F04000402816D17E
:1019E0002068406920F0400021684861A06B50B138
:1019F0005648A16B0865A06BFFF76FF810B1A06B9C
:101A0000016D88470CE02046FFF76EFF08E0204696
:101A1000FFF76AFF04E02046FFF766FF002020641E
:101A200088E7FFE7206B012879D105F01000002836
:101A300075D006F01000002871D000BF0020009083
:101A400020680068009020684068009000BF00BFD8
:101A50002068406900F04000402839D1A06B006840
:101A600040681FFA80F8B8F1000F30D0A08D4045D3
:101A70002DDDA4F82E80A06BC069B0F5807F1FD04B
:101A80002068C06820F480702168C86020684069C0
:101A900020F00100216848612068406920F0400082
:101AA00021684861202084F83E00002020632068DF
:101AB000C06820F010002168C860A06BFEF7B8FF76
:101AC000A08DE28D801A81B22046FFF70CFF31E72E
:101AD000A08DE18D401A1FFA80F8E08DE8B1B8F1D1
:101AE000000F1AD02068C06820F490702168C86088
:101AF0002068406920F0010021684861202084F8B6
:101B00003E00002020632068C06820F0100021689B
:101B1000C86041462046FFF7E6FE0BE7FFE705F009
:101B2000800030B106F0800018B1204600F005FBBF
:101B300000E705F0400030B106F0400018B1204643
:101B400000F053F9F6E600BFF4E60000A11D00081E
:101B500010B504460CB9012010BDA06900B100E029
:101B600000BF94F83D0028B9002084F83C002046CE
:101B700000F028F8242084F83D002068C06820F494
:101B800000502168C860204600F09EF92068006976
:101B900020F49040216808612068406920F02A0004
:101BA000216848612068C06840F400502168C8601E
:101BB00000202064202084F83D0084F83E000020AE
:101BC000CAE7000010B586B004462E492068884256
:101BD00055D100BF00BF002000902B48006840F0A6
:101BE0001000294908600846006800F010000090C5
:101BF00000BF00BF00BF00BF00BF00200090224810
:101C00001438006840F001001F4914390860084684
:101C1000006800F00100009000BF00BF00BF00BFDF
:101C200000BF002000900846006840F001000860F6
:101C30000846006800F00100009000BF00BF00BF30
:101C40004815019002200290012003900220049088
:101C50000720059001A90D48FEF754FF4FF480605E
:101C600001900720059001A90848FEF74BFF2520A9
:101C7000FFF7B9F8032211462520FFF7C4F806B094
:101C800010BD000000100140443802400000024036
:101C900070B504460D46164694F83E00202816D12D
:101CA00005B10EB9012070BD00BF94F83C000128B9
:101CB00001D10220F7E7012084F83C0000BF00209A
:101CC000206332462946204600F014FAEBE7022052
:101CD000E9E700001D4A0168914236D11C49098894
:101CE00001F4004189BB1A49098801F4804171B1AE
:101CF000184909780A2903D00021154A118024E0E7
:101D00001349098841F40041114A11801DE011492D
:101D100009780D2906D10E49098841F480410C4A01
:101D2000118012E00B490978094A1288C2F30D02AA
:101D3000094B995406490988491C054A11801146E6
:101D40000988C72901DD002111807047001001407A
:101D50001400002016000020D4000020704700BFAF
:101D6000FEE700BFFEE7704710B5FEF7F1FF05F094
:101D700009FC012801D005F0CFF910BD0348006827
:101D800040F47000014908607047000088ED00E0F1
:101D900010B50248FFF7C7FC10BD000090020020FC
:101DA00070B50546AC6B0020E085E0842046FFF767
:101DB0009BFD70BD0168C96821F490710268D16013
:101DC0000168496921F0010102685161016B012933
:101DD00005D10168C96821F010010268D160202195
:101DE00080F83E1000210163704710B5044620685A
:101DF000C06820F040002168C860202084F83D00C1
:101E00002046FFF7ABFF002010BD70B5044694F8E4
:101E10003E00222856D1A068B0F5805F0CD1206921
:101E200050B90025A66A20684068C0F308003080D9
:101E3000A06A801CA06215E0A56A0026A068B0F523
:101E4000805F03D0A06828B9206918B9206840686D
:101E5000287004E02068406800F07F002870A06AC5
:101E6000401CA062E08D401E80B2E08540BB20682F
:101E7000C06820F020002168C8602068C06820F495
:101E800080702168C8602068406920F001002168E6
:101E90004861202084F83E00206B01280AD1206888
:101EA000C06820F010002168C860A18D2046FFF7AF
:101EB0001AFD02E02046FFF70DFF0020206370BDF1
:101EC0000020FCE70220FAE72DE9F84F04462068DD
:101ED000006920F44050E1680843216808612169E5
:101EE000A068084361690843E169084300902068DD
:101EF000C06849F20C618843009908432168C860B2
:101F00002068406920F44070A16908432168486155
:101F100076492068884203D075492068884203D1F9
:101F2000FFF79CF8814602E0FFF788F88146E069F8
:101F3000B0F5004F6CD102206168A0FB0150034650
:101F40001920A9FB007001462A463846FEF7FDF924
:101F50006421B0FBF1F04FEA001A02206168A0FB97
:101F600001510B461920A9FB00712A463846FEF79D
:101F7000ECF9834602206168A0FB0150034619205A
:101F8000A9FB00712A463846FEF7DFF96421B0FB51
:101F9000F1F000EBC00101EB0010ABEB800032214F
:101FA00001EBC0006421B0FBF1F000F0F8000AEB97
:101FB000400A02206168A0FB015003461920A9FBDA
:101FC000007001462A463846FEF7BFF983460220D4
:101FD0006168A0FB015003461920A9FB00712A4645
:101FE0003846FEF7B2F96421B0FBF1F000EBC00116
:101FF00001EB0010ABEB8000322101EBC00064214B
:10200000B0FBF1F000F007005044216888606AE0FE
:1020100004206168A0FB015003461920A9FB007051
:1020200001462A463846FEF790F982460420616848
:10203000A0FB015003461920A9FB007001462A4667
:102040003846FEF782F96421B0FBF1F000EBC001E5
:1020500001EB0010AAEB8000322101EB001064219B
:10206000B0FBF1F000F0F00A04206168A0FB017001
:1020700003461920A9FB00513A462846FEF765F9A8
:102080006421B0FBF1F00AEB001A04206168A0FBA8
:1020900001510B461920A9FB00712A463846FEF76C
:1020A00054F9834604206168A0FB015003461920BF
:1020B000A9FB007001462A463846FEF746F964211E
:1020C000B0FBF1F000EBC00101EB0010ABEB8000C6
:1020D000322101EB00106421B0FBF1F000F00F00A1
:1020E000504421688860BDE8F88F0000001001406E
:1020F0000014014010B5034699629A85DA850020E4
:102100001864222083F83E0000BF002083F83C00C2
:1021100000BF1868C06840F480701C68E0601868F0
:10212000406940F001001C6860611868C06840F0B8
:1021300020001C68E060002010BD014691F83D00C1
:10214000212828D18868B0F5805F0BD1086948B98B
:102150000A6A1088C0F308000B685860086A801C7F
:10216000086205E00B6A581C086218780B68586012
:10217000C88C401E80B2C88458B90868C06820F076
:1021800080000B68D8600868C06840F040000B68A9
:10219000D860002070470220FCE7000070B50024E2
:1021A0000F4D1048FFF7ACFB00BF03E0641CAC42CE
:1021B00000D904E00B48FFF798FB2028F6D100BFB8
:1021C000002403E0641CAC4200D906E00122064969
:1021D0000448FFF75DFD0028F4D100BF70BD00008A
:1021E000FFFF01009C0100201600002000BFFEE759
:1021F00002480068C0F30220704700000CED00E0C8
:1022000010B5002804DB0A07130E054A135406E034
:102210000A07140E034A00F00F031B1FD45410BD0D
:1022200000E400E018ED00E000BF704770B5044620
:102230000420FFF747FA0A48046025464FF47A70F5
:1022400045434FF0E020006940F002004FF0E021EC
:10225000086108464561006940F00100086170BDF1
:102260000C00002030B50446002504E04FF47A70DD
:1022700000F004F86D1CA542F8D330BD70B50346DC
:1022800000224FF0E02675690D4E366803FB06F418
:102290004FF0E026B16910E04FF0E026B0698842C7
:1022A0000BD0884202D20E1A324402E02E1A0E449B
:1022B00032440146A24200D300E0EDE700BF70BD0A
:1022C0000C00002000BF054A126802F04002002AFC
:1022D000F9D0C2B2014B5A607047000000100140B3
:1022E0000EB54FF478402CA120221346CDE90021F1
:1022F0000290DC220A21084603F034F84FF47840BB
:1023000027A118221346CDE900210290DC222F21BB
:102310000A2003F027F84FF4784024A11022134636
:10232000CDE900210290DC224C210A2003F01AF8AA
:102330004FF4784021A110221346CDE900210290EC
:10234000C82276211E2003F00DF84FF4784021A119
:1023500010221346CDE900210290C8228B211E20B5
:1023600003F000F84FF4784020A110221346CDE985
:1023700000210290C822A0211E2002F0F3FF1F4876
:10238000012100238022CDE900101DA11F4805F086
:10239000C9F804F01FFD0EBD53544D333200000048
:1023A0004D656D204D616E616765000041544F4D74
:1023B00040414C49454E54454B000000546F7461F8
:1023C0006C204D656D3A20202020202042797465D4
:1023D000730000004672656520204D656D3A20202F
:1023E0002020202042797465730000004D616C6CE0
:1023F0006F6320416464723A000000000400002012
:1024000073746172745F7461736B0000A56500087A
:1024100000B587B000BF00BF0020019038480068B9
:1024200040F01000364908600846006800F01000CF
:10243000019000BF00BF00BF00BF00BF002001909F
:102440000846006840F0100008600846006800F088
:102450001000019000BF00BF00BF00BF00BF002000
:1024600001900846006840F01000086008460068C7
:1024700000F01000019000BF00BF00BF00BF00BF10
:10248000002001900846006840F0010008600846FE
:10249000006800F00100019000BF00BF00BF1020E5
:1024A000029000200390012004900220059002A9D0
:1024B0001448FEF727FB082002900020039001201B
:1024C00004900220059002A90E48FEF71BFB042091
:1024D000029000200390012004900220059002A9A0
:1024E0000848FEF70FFB0120029000200390022015
:1024F0000490059002A90448FEF704FB07B000BD54
:1025000030380240001002400000024070B504461E
:10251000002514B101202B4908702A4800780028B2
:1025200034D010212848FEF7EFFB78B10821264867
:10253000FEF7EAFB50B104212348FEF7E5FB28B182
:1025400001212248FEF7E0FB01281FD10A20FFF7F6
:1025500089FE00201B49087010211B48FEF7D4FBA0
:1025600000B9012508211848FEF7CEFB00B9022565
:1025700004211548FEF7C8FB00B9032501211348C3
:10258000FEF7C2FB01281BD1042519E010210E48DB
:10259000FEF7BAFB012813D108210B48FEF7B4FB64
:1025A00001280DD104210848FEF7AEFB012807D110
:1025B00001210648FEF7A8FB10B901200149087067
:1025C000284670BD2C000020001002400000024090
:1025D00070B5044600260948058840884543002117
:1025E000084602F08FFD02F09DFF00BF02E00448A4
:1025F0000480761CAE42FAD370BD00003002002089
:102600008000006C10B5044649488471002C45D107
:10261000F020474908804FF4A07048800846808821
:1026200045F21051884210D14FF430504049088192
:102630004FF4285048814FF42C5088814FF4F070AB
:1026400008804FF4487048801AE03948808841F685
:10265000631188420DD12C20354908812B204881F7
:102660002A2088814FF4F07008804FF44870488029
:1026700006E02C202E4908812A2048812B208881C1
:102680002B48808845F2103188424CD14FF4A0701D
:10269000274908804FF4F070488044E04FF4A07060
:1026A00023490880F02048800846808845F2105170
:1026B000884210D14FF430501D4908814FF4285002
:1026C00048814FF42C5088814FF4487008804FF4B3
:1026D000F07048801AE01648808841F663118842FD
:1026E0000DD12C20124908812A2048812B20888175
:1026F0004FF4487008804FF4F070488006E02C20BA
:102700000B4908812A2048812B208881084880882D
:1027100045F21031884206D14FF4F0700449088028
:102720004FF4A0704880002002F0D4FB10BD0000E0
:102730003002002070B505460E4614463146284644
:1027400002F0E0FC02F0EEFE01490C8070BD0000DA
:102750008000006C10B5CF2002F0D8FE002002F0FF
:10276000C9FEC12002F0C6FE302002F0C3FEED20FB
:1027700002F0CCFE642002F0BDFE032002F0BAFE9F
:10278000122002F0B7FE812002F0B4FEE82002F031
:10279000BDFE852002F0AEFE102002F0ABFE7A20D6
:1027A00002F0A8FECB2002F0B1FE392002F0A2FE1A
:1027B0002C2002F09FFE002002F09CFE342002F04C
:1027C00099FE022002F096FEF72002F09FFE2020E4
:1027D00002F090FEEA2002F099FE002002F08AFE4C
:1027E000002002F087FEC02002F090FE1B2002F0C5
:1027F00081FEC12002F08AFE012002F07BFEC5208E
:1028000002F084FE302002F075FE302002F072FEED
:10281000C72002F07BFEB72002F06CFE362002F0EB
:1028200075FE482002F066FE3A2002F06FFE552049
:1028300002F060FEB12002F069FE002002F05AFEB4
:102840001A2002F057FEB62002F060FE0A2002F0C5
:1028500051FEA22002F04EFEF22002F057FE0020B0
:1028600002F048FE262002F051FE012002F042FE56
:10287000E02002F04BFE0F2002F03CFE2A2002F086
:1028800039FE282002F036FE082002F033FE0E202A
:1028900002F030FE082002F02DFE542002F02AFE45
:1028A000A92002F027FE432002F024FE0A2002F0B5
:1028B00021FE0F2002F01EFE002002F01BFE002071
:1028C00002F018FE002002F015FE002002F012FEB9
:1028D000E12002F01BFE002002F00CFE152002F0A9
:1028E00009FE172002F006FE072002F003FE112069
:1028F00002F000FE062002F0FDFD2B2002F0FAFDA2
:10290000562002F0F7FD3C2002F0F4FD052002F015
:10291000F1FD102002F0EEFD0F2002F0EBFD3F2054
:1029200002F0E8FD3F2002F0E5FD0F2002F0E2FD9D
:102930002B2002F0EBFD002002F0DCFD002002F075
:10294000D9FD012002F0D6FD3F2002F0D3FD2A2060
:1029500002F0DCFD002002F0CDFD002002F0CAFDF7
:10296000002002F0C7FDEF2002F0C4FD112002F0AC
:10297000CDFD7820FFF776FC292002F0C7FD10BDC1
:1029800010B5ED2002F0C2FD012002F0B3FDFE20E3
:1029900002F0B0FDEE2002F0B9FDDE2002F0AAFD4B
:1029A000212002F0A7FDF12002F0B0FD012002F08D
:1029B000A1FDDF2002F0AAFD102002F09BFDC42043
:1029C00002F0A4FD8F2002F095FDC62002F09EFDCE
:1029D000002002F08FFDE22002F08CFDE22002F0E8
:1029E00089FDE22002F086FDBF2002F08FFDAA20C3
:1029F00002F080FDB02002F089FD0D2002F07AFD8A
:102A0000002002F077FD0D2002F074FD002002F09E
:102A100071FD112002F06EFD002002F06BFD192007
:102A200002F068FD002002F065FD212002F062FD49
:102A3000002002F05FFD2D2002F05CFD002002F07E
:102A400059FD3D2002F056FD002002F053FD5D20AF
:102A500002F050FD002002F04DFD5D2002F04AFD25
:102A6000002002F047FDB12002F050FD802002F06E
:102A700041FD002002F03EFD8B2002F03BFD0020D6
:102A800002F038FD962002F035FD002002F032FD04
:102A9000B22002F03BFD002002F02CFD002002F0ED
:102AA00029FD022002F026FD002002F023FD032074
:102AB00002F020FD002002F01DFDB32002F026FDF3
:102AC000002002F017FD002002F014FD002002F0AB
:102AD00011FD002002F00EFD002002F00BFD002091
:102AE00002F008FD002002F005FD002002F002FDCA
:102AF000002002F0FFFC002002F0FCFC002002F0AD
:102B0000F9FC002002F0F6FC002002F0F3FC0020AB
:102B100002F0F0FC002002F0EDFC002002F0EAFCE4
:102B2000002002F0E7FC002002F0E4FC002002F0AC
:102B3000E1FC002002F0DEFC002002F0DBFC0020C3
:102B400002F0D8FC002002F0D5FC002002F0D2FCFC
:102B5000B42002F0DBFC8B2002F0CCFC002002F061
:102B6000C9FC962002F0C6FC002002F0C3FCA120A4
:102B700002F0C0FC002002F0BDFCB52002F0C6FC53
:102B8000022002F0B7FC002002F0B4FC032002F0A7
:102B9000B1FC002002F0AEFC042002F0ABFC0020EF
:102BA00002F0A8FCB62002F0B1FC002002F0A2FC6A
:102BB000002002F09FFCB72002F0A8FC002002F0E9
:102BC00099FC002002F096FC3F2002F093FC0020CC
:102BD00002F090FC5E2002F08DFC002002F08AFCE6
:102BE000642002F087FC002002F084FC8C2002F0BC
:102BF00081FC002002F07EFCAC2002F07BFC002077
:102C000002F078FCDC2002F075FC002002F072FC7F
:102C1000702002F06FFC002002F06CFC902002F0AB
:102C200069FC002002F066FCEB2002F063FC00204F
:102C300002F060FCDC2002F05DFC002002F05AFC97
:102C4000B82002F063FC002002F054FC002002F0E7
:102C500051FC002002F04EFC002002F04BFC002052
:102C600002F048FC002002F045FC002002F042FC8B
:102C7000002002F03FFCBA2002F048FC242002F0C1
:102C800039FC002002F036FC002002F033FC00206A
:102C900002F030FCC12002F039FC202002F02AFCB6
:102CA000002002F027FC542002F024FC002002F057
:102CB00021FCFF2002F01EFC002002F01BFCC220C1
:102CC00002F024FC0A2002F015FC002002F012FCA5
:102CD000042002F00FFC002002F00CFCC32002F0E4
:102CE00015FC3C2002F006FC002002F003FC3A2018
:102CF00002F000FC002002F0FDFB392002F0FAFB9C
:102D0000002002F0F7FB372002F0F4FB002002F075
:102D1000F1FB3C2002F0EEFB002002F0EBFB362042
:102D200002F0E8FB002002F0E5FB322002F0E2FBBB
:102D3000002002F0DFFB2F2002F0DCFB002002F07D
:102D4000D9FB2C2002F0D6FB002002F0D3FB292077
:102D500002F0D0FB002002F0CDFB262002F0CAFBDF
:102D6000002002F0C7FB242002F0C4FB002002F088
:102D7000C1FB242002F0BEFB002002F0BBFB23209D
:102D800002F0B8FB002002F0B5FB3C2002F0B2FBE1
:102D9000002002F0AFFB362002F0ACFB002002F076
:102DA000A9FB322002F0A6FB002002F0A3FB2F209B
:102DB00002F0A0FB002002F09DFB2C2002F09AFB09
:102DC000002002F097FB292002F094FB002002F083
:102DD00091FB262002F08EFB002002F08BFB2420CA
:102DE00002F088FB002002F085FB242002F082FB29
:102DF000002002F07FFB232002F07CFB002002F089
:102E000079FBC42002F082FB622002F073FB0020F9
:102E100002F070FB052002F06DFB002002F06AFB5F
:102E2000842002F067FB002002F064FBF02002F037
:102E300061FB002002F05EFB182002F05BFB00202B
:102E400002F058FBA42002F055FB002002F052FBD8
:102E5000182002F04FFB002002F04CFB502002F043
:102E600049FB002002F046FB0C2002F043FB00204F
:102E700002F040FB172002F03DFB002002F03AFB7D
:102E8000952002F037FB002002F034FBF32002F023
:102E900031FB002002F02EFBE62002F02BFB00208D
:102EA00002F028FBC52002F031FB322002F022FBA9
:102EB000002002F01FFB442002F01CFB002002F067
:102EC00019FB652002F016FB002002F013FB7620B0
:102ED00002F010FB002002F00DFB882002F00AFB3C
:102EE000002002F007FBC62002F010FB202002F0B9
:102EF00001FB002002F0FEFA172002F0FBFA00208E
:102F000002F0F8FA012002F0F5FA002002F0F2FADD
:102F1000C72002F0FBFA002002F0ECFA002002F0D9
:102F2000E9FA002002F0E6FA002002F0E3FAC820F5
:102F300002F0ECFA002002F0DDFA002002F0DAFAEA
:102F4000002002F0D7FA002002F0D4FAC92002F0E3
:102F5000DDFA002002F0CEFA002002F0CBFA0020C9
:102F600002F0C8FA002002F0C5FA002002F0C2FA0E
:102F7000002002F0BFFA002002F0BCFA002002F0AC
:102F8000B9FA002002F0B6FA002002F0B3FA0020ED
:102F900002F0B0FA002002F0ADFA002002F0AAFA26
:102FA000002002F0A7FA002002F0A4FA002002F0AC
:102FB000A1FAE02002F0AAFA162002F09BFA002003
:102FC00002F098FA1C2002F095FA002002F092FA22
:102FD000212002F08FFA002002F08CFA362002F055
:102FE00089FA002002F086FA462002F083FA0020D7
:102FF00002F080FA522002F07DFA002002F07AFA04
:10300000642002F077FA002002F074FA7A2002F0CD
:1030100071FA002002F06EFA8B2002F06BFA0020A9
:1030200002F068FA992002F065FA002002F062FAD4
:10303000A82002F05FFA002002F05CFAB92002F04A
:1030400059FA002002F056FAC42002F053FA002088
:1030500002F050FACA2002F04DFA002002F04AFABB
:10306000D22002F047FA002002F044FAD92002F000
:1030700041FA002002F03EFAE02002F03BFA002084
:1030800002F038FAF32002F035FA002002F032FAAA
:10309000E12002F03BFA162002F02CFA002002F0A8
:1030A00029FA1C2002F026FA002002F023FA22203E
:1030B00002F020FA002002F01DFA362002F01AFA7F
:1030C000002002F017FA452002F014FA002002F066
:1030D00011FA522002F00EFA002002F00BFA6420DE
:1030E00002F008FA002002F005FA7A2002F002FA53
:1030F000002002F0FFF98B2002F0FCF9002002F022
:10310000F9F9992002F0F6F9002002F0F3F9A8206D
:1031100002F0F0F9002002F0EDF9B92002F0EAF92E
:10312000002002F0E7F9C42002F0E4F9002002F0E8
:10313000E1F9CA2002F0DEF9002002F0DBF9D2202A
:1031400002F0D8F9002002F0D5F9D82002F0D2F927
:10315000002002F0CFF9E02002F0CCF9002002F0CC
:10316000C9F9F32002F0C6F9002002F0C3F9E22009
:1031700002F0CCF9052002F0BDF9002002F0BAF906
:103180000B2002F0B7F9002002F0B4F91B2002F086
:10319000B1F9002002F0AEF9342002F0ABF90020C2
:1031A00002F0A8F9442002F0A5F9002002F0A2F9EB
:1031B0004F2002F09FF9002002F09CF9612002F0FC
:1031C00099F9002002F096F9792002F093F9002095
:1031D00002F090F9882002F08DF9002002F08AF9BF
:1031E000972002F087F9002002F084F9A62002F06F
:1031F00081F9002002F07EF9B72002F07BF900206F
:1032000002F078F9C22002F075F9002002F072F99C
:10321000C72002F06FF9002002F06CF9D12002F013
:1032200069F9002002F066F9D62002F063F9002067
:1032300002F060F9DD2002F05DF9002002F05AF999
:10324000F32002F057F9002002F054F9E32002F0D5
:103250005DF9052002F04EF9002002F04BF90A203A
:1032600002F048F9002002F045F91C2002F042F972
:10327000002002F03FF9332002F03CF9002002F078
:1032800039F9442002F036F9002002F033F95020D9
:1032900002F030F9002002F02DF9622002F02AF944
:1032A000002002F027F9782002F024F9002002F033
:1032B00021F9882002F01EF9002002F01BF9972066
:1032C00002F018F9002002F015F9A62002F012F918
:1032D000002002F00FF9B72002F00CF9002002F0F4
:1032E00009F9C22002F006F9002002F003F9C72014
:1032F00002F000F9002002F0FDF8D12002F0FAF807
:10330000002002F0F7F8D52002F0F4F8002002F0D7
:10331000F1F8DD2002F0EEF8002002F0EBF8F320E7
:1033200002F0E8F8002002F0E5F8E42002F0EEF800
:10333000012002F0DFF8002002F0DCF8012002F0AA
:10334000D9F8002002F0D6F8022002F0D3F80020CD
:1033500002F0D0F82A2002F0CDF8002002F0CAF8DE
:103360003C2002F0C7F8002002F0C4F84B2002F025
:10337000C1F8002002F0BEF85D2002F0BBF800208A
:1033800002F0B8F8742002F0B5F8002002F0B2F8AC
:10339000842002F0AFF8002002F0ACF8932002F095
:1033A000A9F8002002F0A6F8A22002F0A3F800205D
:1033B00002F0A0F8B32002F09DF8002002F09AF885
:1033C000BE2002F097F8002002F094F8C42002F02A
:1033D00091F8002002F08EF8CD2002F08BF800204A
:1033E00002F088F8D32002F085F8002002F082F87D
:1033F000DD2002F07FF8002002F07CF8F32002F0DC
:1034000079F8002002F076F8E52002F07FF800203D
:1034100002F070F8002002F06DF8002002F06AF867
:10342000002002F067F8022002F064F8002002F0A9
:1034300061F8292002F05EF8002002F05BF83C20E1
:1034400002F058F8002002F055F84B2002F052F834
:10345000002002F04FF85D2002F04CF8002002F04E
:1034600049F8742002F046F8002002F043F8842066
:1034700002F040F8002002F03DF8932002F03AF804
:10348000002002F037F8A22002F034F8002002F009
:1034900031F8B32002F02EF8002002F02BF8BE2005
:1034A00002F028F8002002F025F8C42002F022F8EB
:1034B000002002F01FF8CD2002F01CF8002002F0DE
:1034C00019F8D32002F016F8002002F013F8DC20DF
:1034D00002F010F8002002F00DF8F32002F00AF8D4
:1034E000002002F007F8E62002F010F8112002F0A8
:1034F00001F8002001F0FEFF342001F0FBFF002066
:1035000001F0F8FF562001F0F5FF002001F0F2FF76
:10351000762001F0EFFF002001F0ECFF772001F0B2
:10352000E9FF002001F0E6FF662001F0E3FF002044
:1035300001F0E0FF882001F0DDFF002001F0DAFF5C
:10354000992001F0D7FF002001F0D4FFBB2001F04B
:10355000D1FF002001F0CEFF992001F0CBFF002029
:1035600001F0C8FF662001F0C5FF002001F0C2FF96
:10357000552001F0BFFF002001F0BCFF552001F0F5
:10358000B9FF002001F0B6FF452001F0B3FF002095
:1035900001F0B0FF432001F0ADFF002001F0AAFFD1
:1035A000442001F0A7FF002001F0A4FFE72001F074
:1035B000ADFF322001F09EFF002001F09BFF55205F
:1035C00001F098FF002001F095FF762001F092FFB6
:1035D000002001F08FFF662001F08CFF002001F039
:1035E00089FF672001F086FF002001F083FF67203C
:1035F00001F080FF002001F07DFF872001F07AFFBD
:10360000002001F077FF992001F074FF002001F005
:1036100071FFBB2001F06EFF002001F06BFF9920CD
:1036200001F068FF002001F065FF772001F062FFE4
:10363000002001F05FFF442001F05CFF002001F05A
:1036400059FF562001F056FF002001F053FF2320C0
:1036500001F050FF002001F04DFF332001F04AFF40
:10366000002001F047FF452001F044FF002001F059
:1036700041FFE82001F04AFF002001F03BFF00205D
:1036800001F038FF992001F035FF002001F032FFF2
:10369000872001F02FFF002001F02CFF882001F08F
:1036A00029FF002001F026FF772001F023FF0020F2
:1036B00001F020FF662001F01DFF002001F01AFF3D
:1036C000882001F017FF002001F014FFAA2001F06C
:1036D00011FF002001F00EFFBB2001F00BFF0020C6
:1036E00001F008FF992001F005FF002001F002FF22
:1036F000662001F0FFFE002001F0FCFE552001F0E5
:10370000F9FE002001F0F6FE552001F0F3FE002046
:1037100001F0F0FE442001F0EDFE002001F0EAFE91
:10372000442001F0E7FE002001F0E4FE552001F006
:10373000E1FE002001F0DEFEE92001F0E7FEAA2014
:1037400001F0D8FE002001F0D5FE002001F0D2FEED
:10375000002001F0CFFE002001F0D8FEAA2001F0E9
:10376000C9FECF2001F0D2FE002001F0C3FE0020F0
:1037700001F0C0FE002001F0BDFE002001F0BAFE05
:10378000002001F0B7FE002001F0B4FE002001F09F
:10379000B1FE002001F0AEFE002001F0ABFE0020E3
:1037A00001F0A8FE002001F0A5FE002001F0A2FE1D
:1037B000002001F09FFE002001F09CFE002001F09F
:1037C00099FE002001F096FE002001F093FEF0200B
:1037D00001F09CFE002001F08DFE502001F08AFED9
:1037E000002001F087FE002001F084FE002001F09F
:1037F00081FEF32001F08AFE002001F07BFEF9201B
:1038000001F084FE062001F075FE102001F072FE2A
:10381000292001F06FFE002001F06CFE3A2001F03B
:1038200075FE552001F066FE112001F06FFE642048
:10383000FEF718FD292001F069FE352001F066FE33
:10384000002001F057FE512001F060FEFF2001F042
:1038500051FE532001F05AFE2C2001F04BFE552062
:1038600001F054FE822001F045FE2C2001F04EFEB6
:1038700010BD10B555214FF4704001F05DFEAA2136
:103880004FF2010001F058FE52214FF2020001F008
:1038900053FE08214FF2030001F04EFE01214FF2CA
:1038A000040001F049FE0D214FF4304001F044FEC8
:1038B0000D214BF2010001F03FFE0D214BF2020001
:1038C00001F03AFE34214FF4364001F035FE342148
:1038D0004BF2016001F030FE34214BF2026001F046
:1038E0002BFE0D214FF4314001F026FE0D214BF24D
:1038F000011001F021FE0D214BF2021001F01CFE1F
:1039000034214FF4374001F017FE34214BF201709F
:1039100001F012FE34214BF2027001F00DFE002185
:103920004FF4324001F008FE00214BF2012001F07B
:1039300003FE00214BF2022001F0FEFD24214FF492
:10394000384001F0F9FD24214BF6010001F0F4FDAF
:1039500024214BF6020001F0EFFD01214FF43F401E
:1039600001F0EAFD0F214FF4334001F0E5FD0F2196
:103970004BF2013001F0E0FD0F214BF2023001F07B
:10398000DBFD34214FF4394001F0D6FD34214BF6F4
:10399000011001F0D1FD34214BF6021001F0CCFDF5
:1039A00008214FF4354001F0C7FD08214BF20150CA
:1039B00001F0C2FD08214BF2025001F0BDFD0321D0
:1039C0004FF4424001F0B8FD24214FF43A4001F099
:1039D000B3FD24214BF6012001F0AEFD24214BF66E
:1039E000022001F0A9FD00214FF43C4001F0A4FDAC
:1039F00078214BF6014001F09FFD00214BF602407B
:103A000001F09AFD00214FF43D4001F095FD782131
:103A10004BF6015001F090FD00214BF6025001F0F1
:103A20008BFD00214FF43E4001F086FD64214BF6F2
:103A3000016001F081FD00214FF4514001F07CFD57
:103A400033214DF2011001F077FD00214DF20210FB
:103A500001F072FD34214DF2031001F06DFD0021E3
:103A60004DF2041001F068FD3A214DF2051001F00D
:103A700063FD00214DF2061001F05EFD4A214DF27A
:103A8000071001F059FD00214DF2081001F054FD1E
:103A90005C214DF2091001F04FFD00214DF20A109A
:103AA00001F04AFD81214DF20B1001F045FD00218E
:103AB0004DF20C1001F040FDA6214DF20D1001F069
:103AC0003BFD00214DF20E1001F036FDE5214DF2D7
:103AD0000F1001F031FD01214DF2101001F02CFD0D
:103AE00013214DF2111001F027FD01214DF21210AA
:103AF00001F022FD54214DF2131001F01DFD0121B2
:103B00004DF2141001F018FD82214DF2151001F054
:103B100013FD01214DF2161001F00EFDCA214DF2E8
:103B2000171001F009FD02214DF2181001F004FDFB
:103B300000214DF2191001F0FFFC02214DF21A1084
:103B400001F0FAFC01214DF21B1001F0F5FC0221FD
:103B50004DF21C1001F0F0FC34214DF21D1001F06B
:103B6000EBFC02214DF21E1001F0E6FC67214DF244
:103B70001F1001F0E1FC02214DF2201001F0DCFCED
:103B800084214DF2211001F0D7FC02214DF22210C8
:103B900001F0D2FCA4214DF2231001F0CDFC022152
:103BA0004DF2241001F0C8FCB7214DF2251001F0B0
:103BB000C3FC02214DF2261001F0BEFCCF214DF2D4
:103BC000271001F0B9FC02214DF2281001F0B4FCDD
:103BD000DE214DF2291001F0AFFC02214DF22A1036
:103BE00001F0AAFCF2214DF22B1001F0A5FC0221FC
:103BF0004DF22C1001F0A0FCFE214DF22D1001F031
:103C00009BFC03214DF22E1001F096FC10214DF289
:103C10002F1001F091FC03214DF2301001F08CFCCB
:103C200033214DF2311001F087FC03214DF23210A7
:103C300001F082FC6D214DF2331001F07DFC00217A
:103C40004FF4524001F078FC33214DF2012001F095
:103C500073FC00214DF2022001F06EFC34214DF284
:103C6000032001F069FC00214DF2042001F064FC06
:103C70003A214DF2052001F05FFC00214DF20620B3
:103C800001F05AFC4A214DF2072001F055FC0021B9
:103C90004DF2082001F050FC5C214DF2092001F0AA
:103CA0004BFC00214DF20A2001F046FC81214DF22F
:103CB0000B2001F041FC00214DF20C2001F03CFCF6
:103CC000A6214DF20D2001F037FC00214DF20E200F
:103CD00001F032FCE5214DF20F2001F02DFC012115
:103CE0004DF2102001F028FC13214DF2112001F0BB
:103CF00023FC01214DF2122001F01EFC54214DF253
:103D0000132001F019FC01214DF2142001F014FCE4
:103D100082214DF2152001F00FFC01214DF21620F9
:103D200001F00AFCCA214DF2172001F005FC022126
:103D30004DF2182001F000FC00214DF2192001F095
:103D4000FBFB02214DF21A2001F0F6FB01214DF29E
:103D50001B2001F0F1FB02214DF21C2001F0ECFBD5
:103D600034214DF21D2001F0E7FB02214DF21E200F
:103D700001F0E2FB67214DF21F2001F0DDFB022183
:103D80004DF2202001F0D8FB84214DF2212001F0DA
:103D9000D3FB02214DF2222001F0CEFBA4214DF2F3
:103DA000232001F0C9FB02214DF2242001F0C4FBC5
:103DB000B7214DF2252001F0BFFB02214DF2262054
:103DC00001F0BAFBCF214DF2272001F0B5FB022113
:103DD0004DF2282001F0B0FBDE214DF2292001F048
:103DE000ABFB02214DF22A2001F0A6FBF2214DF29D
:103DF0002B2001F0A1FB02214DF22C2001F09CFBB5
:103E0000FE214DF22D2001F097FB03214DF22E20D3
:103E100001F092FB10214DF22F2001F08DFB0321C8
:103E20004DF2302001F088FB33214DF2312001F0BA
:103E300083FB03214DF2322001F07EFB6D214DF218
:103E4000332001F079FB00214FF4534001F074FB63
:103E500033214DF2013001F06FFB00214DF20230B1
:103E600001F06AFB34214DF2033001F065FB0021C3
:103E70004DF2043001F060FB3A214DF2053001F0C3
:103E80005BFB00214DF2063001F056FB4A214DF25A
:103E9000073001F051FB00214DF2083001F04CFBDE
:103EA0005C214DF2093001F047FB00214DF20A3050
:103EB00001F042FB81214DF20B3001F03DFB00216E
:103EC0004DF20C3001F038FBA6214DF20D3001F01F
:103ED00033FB00214DF20E3001F02EFBE5214DF2B7
:103EE0000F3001F029FB01214DF2103001F024FBCD
:103EF00013214DF2113001F01FFB01214DF2123060
:103F000001F01AFB54214DF2133001F015FB012191
:103F10004DF2143001F010FB82214DF2153001F00A
:103F20000BFB01214DF2163001F006FBCA214DF2C8
:103F3000173001F001FB02214DF2183001F0FCFABC
:103F400000214DF2193001F0F7FA02214DF21A303A
:103F500001F0F2FA01214DF21B3001F0EDFA0221DD
:103F60004DF21C3001F0E8FA34214DF21D3001F021
:103F7000E3FA02214DF21E3001F0DEFA67214DF224
:103F80001F3001F0D9FA02214DF2203001F0D4FAAD
:103F900084214DF2213001F0CFFA02214DF222307E
:103FA00001F0CAFAA4214DF2233001F0C5FA022132
:103FB0004DF2243001F0C0FAB7214DF2253001F066
:103FC000BBFA02214DF2263001F0B6FACF214DF2B4
:103FD000273001F0B1FA02214DF2283001F0ACFA9D
:103FE000DE214DF2293001F0A7FA02214DF22A30EC
:103FF00001F0A2FAF2214DF22B3001F09DFA0221DC
:104000004DF22C3001F098FAFE214DF22D3001F0E6
:1040100093FA03214DF22E3001F08EFA10214DF269
:104020002F3001F089FA03214DF2303001F084FA8B
:1040300033214DF2313001F07FFA03214DF232305D
:1040400001F07AFA6D214DF2333001F075FA00215A
:104050004FF4544001F070FA33214DF2014001F069
:104060006BFA00214DF2024001F066FA34214DF264
:10407000034001F061FA00214DF2044001F05CFAC6
:104080003A214DF2054001F057FA00214DF2064069
:1040900001F052FA4A214DF2074001F04DFA002199
:1040A0004DF2084001F048FA5C214DF2094001F060
:1040B00043FA00214DF20A4001F03EFA81214DF20F
:1040C0000B4001F039FA00214DF20C4001F034FAB6
:1040D000A6214DF20D4001F02FFA00214DF20E40C5
:1040E00001F02AFAE5214DF20F4001F025FA0121F5
:1040F0004DF2104001F020FA13214DF2114001F071
:104100001BFA01214DF2124001F016FA54214DF232
:10411000134001F011FA01214DF2144001F00CFAA4
:1041200082214DF2154001F007FA01214DF21640AF
:1041300001F002FACA214DF2174001F0FDF9022107
:104140004DF2184001F0F8F900214DF2194001F04C
:10415000F3F902214DF21A4001F0EEF901214DF27E
:104160001B4001F0E9F902214DF21C4001F0E4F995
:1041700034214DF21D4001F0DFF902214DF21E40C5
:1041800001F0DAF967214DF21F4001F0D5F9022163
:104190004DF2204001F0D0F984214DF2214001F090
:1041A000CBF902214DF2224001F0C6F9A4214DF2D3
:1041B000234001F0C1F902214DF2244001F0BCF985
:1041C000B7214DF2254001F0B7F902214DF226400A
:1041D00001F0B2F9CF214DF2274001F0ADF90221F3
:1041E0004DF2284001F0A8F9DE214DF2294001F0FE
:1041F000A3F902214DF22A4001F09EF9F2214DF27D
:104200002B4001F099F902214DF22C4001F094F974
:10421000FE214DF22D4001F08FF903214DF22E4089
:1042200001F08AF910214DF22F4001F085F90321A8
:104230004DF2304001F080F933214DF2314001F070
:104240007BF903214DF2324001F076F96D214DF2F8
:10425000334001F071F900214FF4554001F06CF941
:1042600033214DF2015001F067F900214DF2025067
:1042700001F062F934214DF2035001F05DF90021A3
:104280004DF2045001F058F93A214DF2055001F079
:1042900053F900214DF2065001F04EF94A214DF23A
:1042A000075001F049F900214DF2085001F044F99E
:1042B0005C214DF2095001F03FF900214DF20A5006
:1042C00001F03AF981214DF20B5001F035F900214E
:1042D0004DF20C5001F030F9A6214DF20D5001F0D5
:1042E0002BF900214DF20E5001F026F9E5214DF297
:1042F0000F5001F021F901214DF2105001F01CF98D
:1043000013214DF2115001F017F901214DF2125015
:1043100001F012F954214DF2135001F00DF9012171
:104320004DF2145001F008F982214DF2155001F0C0
:1043300003F901214DF2165001F0FEF8CA214DF2A9
:10434000175001F0F9F802214DF2185001F0F4F87D
:1043500000214DF2195001F0EFF802214DF21A50F0
:1043600001F0EAF801214DF21B5001F0E5F80221BD
:104370004DF21C5001F0E0F834214DF21D5001F0D7
:10438000DBF802214DF21E5001F0D6F867214DF204
:104390001F5001F0D1F802214DF2205001F0CCF86D
:1043A00084214DF2215001F0C7F802214DF2225034
:1043B00001F0C2F8A4214DF2235001F0BDF8022112
:1043C0004DF2245001F0B8F8B7214DF2255001F01C
:1043D000B3F802214DF2265001F0AEF8CF214DF294
:1043E000275001F0A9F802214DF2285001F0A4F85D
:1043F000DE214DF2295001F09FF802214DF22A50A2
:1044000001F09AF8F2214DF22B5001F095F80221BB
:104410004DF22C5001F090F8FE214DF22D5001F09C
:104420008BF803214DF22E5001F086F810214DF249
:104430002F5001F081F803214DF2305001F07CF84B
:1044400033214DF2315001F077F803214DF2325013
:1044500001F072F86D214DF2335001F06DF800213A
:104460004FF4564001F068F833214DF2016001F03D
:1044700063F800214DF2026001F05EF834214DF244
:10448000036001F059F800214DF2046001F054F886
:104490003A214DF2056001F04FF800214DF206601F
:1044A00001F04AF84A214DF2076001F045F8002179
:1044B0004DF2086001F040F85C214DF2096001F016
:1044C0003BF800214DF20A6001F036F881214DF2EF
:1044D0000B6001F031F800214DF20C6001F02CF876
:1044E000A6214DF20D6001F027F800214DF20E607B
:1044F00001F022F8E5214DF20F6001F01DF80121D5
:104500004DF2106001F018F813214DF2116001F026
:1045100013F801214DF2126001F00EF854214DF212
:10452000136001F009F801214DF2146001F004F864
:1045300082214DF2156000F0FFFF01214DF216605F
:1045400000F0FAFFCA214DF2176000F0F5FF0221DA
:104550004DF2186000F0F0FF00214DF2196000F0FC
:10456000EBFF02214DF21A6000F0E6FF01214DF24F
:104570001B6000F0E1FF02214DF21C6000F0DCFF47
:1045800034214DF21D6000F0D7FF02214DF21E6074
:1045900000F0D2FF67214DF21F6000F0CDFF022135
:1045A0004DF2206000F0C8FF84214DF2216000F040
:1045B000C3FF02214DF2226000F0BEFFA4214DF2A4
:1045C000236000F0B9FF02214DF2246000F0B4FF37
:1045D000B7214DF2256000F0AFFF02214DF22660B9
:1045E00000F0AAFFCF214DF2276000F0A5FF0221C5
:1045F0004DF2286000F0A0FFDE214DF2296000F0AE
:104600009BFF02214DF22A6000F096FFF2214DF24D
:104610002B6000F091FF02214DF22C6000F08CFF26
:10462000FE214DF22D6000F087FF03214DF22E6038
:1046300000F082FF10214DF22F6000F07DFF03217A
:104640004DF2306000F078FF33214DF2316000F020
:1046500073FF03214DF2326000F06EFF6D214DF2C9
:10466000336000F069FF55214FF4704000F064FFA3
:10467000AA214FF2010000F05FFF52214FF2020029
:1046800000F05AFF08214FF2030000F055FF00210F
:104690004FF2040000F050FFCC214FF4314000F005
:1046A0004BFF00214BF2011000F046FF05214FF4B3
:1046B000364000F041FF70214FF4374000F03CFFDE
:1046C00070214BF2017000F037FF01214FF43840A8
:1046D00000F032FF03214BF6010000F02DFF032113
:1046E0004BF6020000F028FF03214BF6030000F018
:1046F00023FF02214FF43C4000F01EFF00214BF647
:10470000014000F019FF00214BF6024000F014FFB9
:10471000D0214FF4494000F00FFF02214CF6011068
:1047200000F00AFF50214CF6021000F005FF502166
:104730004CF6031000F000FF50214CF6041000F07E
:10474000FBFE00214FF4545000F0F6FE55214FF4CB
:10475000685000F0F1FE4FF4885000F0D7FE78204A
:10476000FDF78CFD4FF4245000F0D0FE10BD10B5C5
:10477000E22000F0CBFE1D2000F0BCFE022000F085
:10478000B9FE042000F0B6FE6420FDF777FDE020BE
:1047900000F0BCFE012000F0ADFE0A20FDF762FD36
:1047A000E02000F0B3FE032000F0A4FE0C20FDF793
:1047B00059FD012000F0AAFE0A20FDF753FDE62076
:1047C00000F0A4FE2F2000F095FEFF2000F092FEE6
:1047D000FF2000F08FFEB02000F098FE202000F0B7
:1047E00089FE002000F086FE032000F083FE40F2E8
:1047F0001F3000F07FFE012000F07CFE40F2DF1051
:1048000000F078FE002000F075FEB42000F07EFE7F
:10481000042000F06FFE40F21F4000F06BFE00200D
:1048200000F068FE2E2000F065FE002000F062FE21
:10483000002000F05FFE002000F05CFE002000F091
:1048400059FEB62000F062FE022000F053FE4FF445
:10485000037000F04FFE002000F04CFE172000F027
:1048600049FE152000F046FE002000F043FE002027
:1048700000F040FEF02000F049FE032000F03AFE78
:10488000292000F043FED02000F040FE002000F080
:1048900031FEBE2000F03AFE052000F02BFEFE2087
:1048A00000F028FE012000F025FE002000F022FE8E
:1048B000002000F01FFE002000F01CFEB82000F0D9
:1048C00025FE032000F016FE012000F013FEBA20A2
:1048D00000F01CFE012000F00DFE10BD10B51120EF
:1048E00000F014FE7820FDF7BDFC362000F00EFE2F
:1048F000002000F0FFFD3A2000F008FE052000F047
:10490000F9FDB22000F002FE0C2000F0F3FD0C20B7
:1049100000F0F0FD002000F0EDFD332000F0EAFD96
:10492000332000F0E7FDB72000F0F0FD352000F067
:10493000E1FDBB2000F0EAFD322000F0DBFDC020ED
:1049400000F0E4FD0C2000F0D5FDC22000F0DEFDFB
:10495000012000F0CFFDC32000F0D8FD102000F0B2
:10496000C9FDC42000F0D2FD202000F0C3FDC62008
:1049700000F0CCFD0F2000F0BDFDD02000F0C6FD02
:10498000A42000F0B7FDA12000F0B4FDE02000F06D
:10499000BDFDD02000F0AEFD002000F0ABFD0220F8
:1049A00000F0A8FD072000F0A5FD0A2000F0A2FD00
:1049B000282000F09FFD322000F09CFD442000F0F4
:1049C00099FD422000F096FD062000F093FD0E2098
:1049D00000F090FD122000F08DFD142000F08AFD03
:1049E000172000F087FDE12000F090FDD02000F0BE
:1049F00081FD002000F07EFD022000F07BFD0720FD
:104A000000F078FD0A2000F075FD282000F072FD0E
:104A1000312000F06FFD542000F06CFD472000F0C5
:104A200069FD0E2000F066FD1C2000F063FD1720DC
:104A300000F060FD1B2000F05DFD1E2000F05AFD1F
:104A40002A2000F063FD002000F054FD002000F05B
:104A500051FD002000F04EFDEF2000F04BFD2B201B
:104A600000F054FD002000F045FD002000F042FD64
:104A7000012000F03FFD3F2000F03CFD292000F028
:104A800045FD10BD00B595B000BF00BF00200190EE
:104A9000FD48006840F04000FB4908600846006897
:104AA00000F04000019000BF00BF00BF00BF00BF8A
:104AB000002001900846006840F0080008600846A1
:104AC000006800F00800019000BF00BF00BF00BFF9
:104AD00000BF002001900846006840F00800086010
:104AE0000846006800F00800019000BF00BF00BF4A
:104AF00000BF00BF002001900846006840F0400061
:104B000008600846006800F04000019000BF00BF48
:104B100000BF00BF00BF002001900846006840F0C1
:104B2000020008600846006800F00200019000BF23
:104B300000BF00BF88141090022011900120129035
:104B4000022013900C20149010A9D048FBF7DAFF34
:104B50002020109010A9CE48FBF7D4FF1020109011
:104B600010A9CB48FBF7CEFF4FF48050109010A94E
:104B7000C848FBF7C7FF4FF4004010900120119088
:104B800010A9C548FBF7BEFF4FF02040C34908609D
:104B9000C3484860062088600021C048C1601021D9
:104BA000416100218161C16141624FF480518162A4
:104BB0000021C1624FF480410163002141638163A0
:104BC0000F20099000200A903C200B9000200F90AD
:104BD00005900920029000200390092004900020F5
:104BE000089002AA09A9AD48FCF7EEFC3220FDF7B7
:104BF00039FBD32000F08AFC00F062F9A9498880D3
:104C000000F05EF9A749888000F05AF9A54988802C
:104C1000084680884FF6FF7101EA0020A14988808C
:104C200000F04EF99F49898808439E4988800846CC
:104C3000808849F2413188427DD0042000F066FC32
:104C400000F03EF99749888000F03AF9954988804C
:104C500000F036F993498880084680884FF6FF7146
:104C600001EA00208F49888000F02AF98D4989885F
:104C700008438C4988800846808848F2525188420F
:104C800003D147F28970874988808648808847F237
:104C900089718842D0D0D42000F038FC00F010F99F
:104CA0008049888000F00CF97E49888000F008F97E
:104CB0007C498880084680884FF6FF7101EA002011
:104CC0007849888000F0FCF876498988084375495E
:104CD00088800846808845F21031884262D055218C
:104CE0004FF4704000F028FCAA214FF2010000F0C0
:104CF00023FC52214FF2020000F01EFC08214FF26B
:104D0000030000F019FC01214FF2040000F014FC34
:104D10004FF4454000F0FAFB00F0D2F8614988807A
:104D2000084680884FF6FF7101EA00205D498880BF
:104D30004CF2015000E035E000F0E8FB00F0C0F874
:104D4000584989880843574988800520FDF78AFA21
:104D50005448808845F21051884223D0A12000F0A9
:104D6000D5FB00F0ADF84F49888000F0A9F84D4917
:104D70008880084680884FF6FF7101EA0020494983
:104D8000888000F09DF84749898808434549888014
:104D90000846808845F26171884203D141F663106C
:104DA000404988803F48808847F28971884202D113
:104DB000FFF794FD25E03B48808849F24131884265
:104DC00002D1FDF7C7FC1CE03648808845F210315F
:104DD000884202D1FDF7D4FD13E03248808845F2C5
:104DE0001051884202D1FEF744FD0AE02D48808828
:104DF00041F66311884204D1FFF7B9FC642000F04A
:104E000049FB2848808849F2413188420BD0254827
:104E1000808841F66311884205D02248808847F295
:104E20008971884209D10320029004901B490B6BC1
:104E30008A68486802A9FBF787FD1A48808845F20E
:104E40001031884205D01748808845F210518842B9
:104E500009D102200290049010490B6B8A684868BF
:104E600002A9FBF771FD0020FDF7CCFB00BF01227A
:104E7000D1030948FBF75AFF00BF4FF6FF70FDF75B
:104E8000A7FB15B000BD00003038024000180240FA
:104E9000000C02400014024000040240E001002027
:104EA000040100A03002002010B50246012000E0FD
:104EB00050430B00A1F10104E1B2F9D110BD000093
:104EC00008B5034800880090BDF8000008BD000048
:104ED0008000006CF0B505460024002788488079E2
:104EE000012805D18648808841F66311884208D19F
:104EF00083488079F0B98248808841F663118842FE
:104F000018D1082D15D2DFE805F00406080A0C0EAA
:104F1000101206250DE007250BE0042509E0052504
:104F200007E0012505E0002503E0032501E0022557
:104F300000BF00BF082D1CD2DFE805F00406090CF5
:104F40000F12151800BF14E044F0800411E044F083
:104F500040040EE044F0C0040BE044F0200408E0FC
:104F600044F0600405E044F0A00402E044F0E004F2
:104F700000BF00BF36276248808845F21051884242
:104F800000D13F025E48808849F24131884205D015
:104F90005B48808847F28971884201D144F0080457
:104FA0002146384600F0C8FA5548808841F663111A
:104FB00088421DD004F0200068B151480088504953
:104FC0004988884214DA4E48068840884C4908804F
:104FD000084646800CE04A4800884949498888428A
:104FE00006DD4748068840884549088008464680CF
:104FF0004348808845F21051884252D1404948893F
:1050000000F084FA002000F075FA3D494989491CF6
:1050100088B200F07BFA002000F06CFA3849498928
:10502000891C88B200F072FA35490988491EC1F31B
:105030000F2000F05FFA32494989C91C88B200F09C
:1050400065FA2F490978491EC8B200F053FA2C4975
:10505000888900F05BFA002000F04CFA2849898921
:10506000491C88B200F052FA002000F043FA2449AB
:105070008989891C88B200F049FA21494988491E6A
:10508000C1F30F2000F036FA1D498989C91C88B286
:1050900000F03CFA1A498978491EC8B200F02AFA91
:1050A0002DE01749488900F031FA002000F022FA7B
:1050B000002000F01FFA12490988491EC1F30F2091
:1050C00000F018FA0E490978491EC8B200F012FA29
:1050D0000B49888900F01AFA002000F00BFA002032
:1050E00000F008FA06494988491EC1F30F2000F074
:1050F00001FA03498978491EC8B200F0FBF9F0BDF6
:105100003002002010B502460C464548808841F622
:105110006311884247D142488079A8B94048008845
:10512000401E801A82B23E49488900F0EFF9002003
:1051300000F0E0F9002000F0DDF9101200F0DAF9DB
:10514000D0B200F0D7F916E03549488900F0DEF911
:10515000101200F0CFF9D0B200F0CCF93049098834
:10516000491EC1F30F2000F0C5F92D490978491EE9
:10517000C8B200F0BFF92A49888900F0C7F92012A7
:1051800000F0B8F9E0B200F0B5F925494988491EA8
:10519000C1F30F2000F0AEF921498978491EC8B249
:1051A00000F0A8F93AE01E48808845F21051884284
:1051B00020D11B49488900F0A9F9101200F09AF992
:1051C00017494989491C88B200F0A0F9D0B200F013
:1051D00091F91349888900F099F9201200F08AF9B1
:1051E0000F498989491C88B200F090F9E0B200F0BB
:1051F00081F913E00A49488900F088F9101200F09B
:1052000079F9D0B200F076F90549888900F07EF985
:10521000201200F06FF9E0B200F06CF910BD000050
:10522000300200202DE9FC4F80460E4615461C46F4
:10523000B3460020019000902046E31704EB53731F
:10524000DB1021464FEAE47C04EB5C7C4FEAEC0C7B
:10525000A4EBCC0CBCF1000F02D04FF0010C01E02C
:105260004FF0000C6344224604EBD27C4FEA6C0CF6
:1052700003FB0CF3DBB20193A5F12000C5B20C2CAB
:1052800006D0102C0BD0182C0ED0202C18D112E0E8
:1052900005EB45002D4901EB8000009012E02C4801
:1052A00000EB051000900DE005EBC500294901EB6E
:1052B0008000009006E0284800EB8510009001E097
:1052C000BDE8FC8F00BF00273AE0009810F8079077
:1052D0004FF0000A2EE009F0800028B13146404628
:1052E0000C9AFDF727FA07E00B9828B91B483146BE
:1052F00002684046FDF71EFA4FEA49604FEA10691E
:10530000701C86B216484088B04200DCD8E7A6EB95
:105310000B00A0420AD15E4608F101001FFA80F896
:105320000F480088404500DCCAE706E00AF10100AA
:1053300000F0FF0ABAF1080FCDDB00BF781CC7B23E
:1053400001988742C1DB00BFBAE70000B27E0008C7
:10535000268300081689000872960008280000209D
:10536000300200202DE9FC4F04460D469046994638
:10537000DDE90C7A0B9E04F0FF0B08EB04001FFA2A
:1053800080F809EB05001FFA80F917E0444502DBBD
:105390005C46A81985B24D4500DB15E00020CDE93B
:1053A000000A3A78334629462046FFF73BFF30464D
:1053B00006EBD07104EB61018CB27F1C38787E283B
:1053C00002DC38782028E1DA00BFBDE8FC8F2DE947
:1053D000FF4F85B0064693461F46DDE91389129CB0
:1053E00000200490002550E0781B401EC1B20A2026
:1053F000FFF75AFDBBFBF0F00A21B0FBF1F201FB15
:10540000120A049860BB781EA84229DDBAF1000F89
:1054100024D108F0800080B108F0010004EBD471C1
:10542000491001FB0561CDE90009039488B22346C8
:1054300030220699FFF7F6FE0FE008F0010004EBBA
:10544000D471491001FB0561CDE90009039488B2CC
:10545000234620220699FFF7E5FE14E00120049080
:1054600008F0010004EBD471491001FB0561CDE99E
:105470000009039488B20AF13001CAB223460699A2
:10548000FFF7D0FE00BF681CC5B2BD42ACDB09B05F
:10549000BDE8F08F70B52DED048B0446BE2000F002
:1054A00035F8052000F026F8204602F0E0FB41EC3C
:1054B000190B9FED0E0B53EC102B02F0EBFB41ECA4
:1054C000180B02F0A7FB85B2284600F013F8012064
:1054D00000F010F8FF2000F00DF8002000F00AF8AE
:1054E000002000F007F8BDEC048B70BD66666666B0
:1054F0006666044001B5BDF800000090BDF80000EC
:105500000149088008BD00008000006C01B5BDF8AD
:1055100000000090BDF800000149088008BD0000AF
:105520007E00006C02480089024908807047000034
:10553000300200207E00006C034A10804FF0D842F9
:10554000A2F88010704700007E00006C00B587B0A4
:1055500000BF00BF002001902048006840F02000FC
:105560001E4908600846006800F02000019000BF56
:1055700000BF00BF00BF00BF0020019008460068C8
:1055800040F0200008600846006800F0200001900C
:1055900000BF00BF00BF4815029001200390049097
:1055A0000220059002A90E48FBF7ACFA4FF4806088
:1055B000029002A90A48FBF7A5FA00BF0122510296
:1055C0000748FBF7B3FB00BF00BF0122910204486C
:1055D000FBF7ACFB00BF07B000BD00003038024055
:1055E0000014024010B5FBF7BFFB0723022208217D
:1055F0004FF4A87000F0F6FFA820FCF717FE4FF458
:10560000E13001F0ABF8FFF7A1FFFFF73BFAFCF741
:10561000FFFE00F0CFFE002000F00AF8022000F0AC
:1056200007F8012000F004F8FCF75AFE002010BD36
:1056300030B504460225084951F8241001FB05F253
:10564000064951F82400002100F02AF801210348FE
:105650000C30015530BD000034AE0008440000207D
:1056600010B501460023002207E00B4850F8210046
:1056700030F8120000B15B1C521C084850F82100A1
:105680009042F2D84FF47A705843044C54F82140B9
:10569000B0FBF4F080B210BD4400002034AE00082E
:1056A00030B5034601E003F8011B1400A2F101022A
:1056B000F9D130BD2DE9F04105460E46294807686D
:1056C00000202949096881F8590027480068001D11
:1056D00001F060F850B92448006890F82C100120BF
:1056E000884022490968814320480160681CD8B974
:1056F000D6B11F4948681C49096888601A49826800
:105700000968CA6018490968091D8268516016490C
:105710000968091D8160164A134909684A611146E2
:105720000968491C11601AE07C190F480068446040
:10573000BC4207D20C480168091D0E48006801F000
:105740004DF80CE008480168091D0B48006801F09D
:1057500045F80A480068844201D208480460BDE860
:10576000F081000068000020540000206C00002040
:1057700010AF01205C0000205800002084000020B1
:1057800010B5044601F050F831480068401C30491B
:1057900008603048006840B92E4804600846006838
:1057A00001280DD100F016FA0AE02B48006838B93C
:1057B00028480068C06AE16A884201D82548046028
:1057C00026480068401C2549086008460068606457
:1057D00094F82C1001208840214909680843204989
:1057E0000860E16A01EB81011E4A02EB8101486811
:1057F000A0608268E260211D826851608160E16A78
:1058000001EB8101174A02EB81026261E16A01EB5F
:105810008101144A52F82110491CE26A02EB82020B
:10582000104B43F8221001F04BF80B48006868B1A8
:1058300008480068C06AE16A884207D24FF0805089
:1058400009490860BFF34F8FBFF36F8F10BD000091
:105850006400002054000020700000208000002020
:105860006C00002040AC012004ED00E010B500F019
:10587000DBFF10480068D0B90F4800F09FFF0F48C9
:1058800000F09CFF0C480E4908600C480D49086068
:1058900000221021052001F059FC06490860084645
:1058A000006820B108A10348006801F0C9F801F0C0
:1058B00007F810BD9C00002024AF012038AF012064
:1058C0009400002098000020546D725100000000E8
:1058D00010B516E000F0A8FF0C48C068C468201D91
:1058E00000F058FF0A480068401E0949086009484E
:1058F0000068401E0749086000F0E2FF204600F003
:105900005FF8044800680028E4D110BDFCAE012017
:10591000640000206000002070B504460D46206C35
:1059200070B1216CE0680144E160D4E90210884262
:1059300001D32168E1602846226CE168FAF760FE35
:1059400070BD2DE9F04104460F4615464FF00008A2
:10595000A66B206C48B9206800282CD1A06801F003
:105960001BFF80460020A06025E07DB93946226CEF
:105970006068FAF745FE216C606808446060D4E90D
:105980000101884217D32068606014E03946226C18
:10599000E068FAF735FE216CE068411AE1602168A1
:1059A000E068884203D2216CA068411AE160022DB0
:1059B00001D106B1761E701CA0634046BDE8F0819F
:1059C00010B50446206B00F0BBFF204600F0B8FF86
:1059D00010BD00000146084A126812680AB9012287
:1059E00000E000220A600A6822B9034A1268D268FD
:1059F000106800E0002070479400002030B54FF49C
:105A00002053174800F007042CB1C01D20F00700F8
:105A1000134C041B1B1B0246124C22600024114D28
:105A20006C60D018083820F007000F4C206000246C
:105A30000D4D2D686C600C4D2D682C601146441A7C
:105A40004C60094C24680C60084D4C682C60084D73
:105A50004C682C604FF00044064D2C6030BD0000B7
:105A60004CAF0120A8000020B0000020B8000020AA
:105A7000B4000020C400002000BFFFF729FF064843
:105A800000680128F9D94FF0805004490860BFF33D
:105A90004F8FBFF36F8FF0E740AC012004ED00E0C3
:105AA0002DE9F04106460D4617469846069C0DB96D
:105AB000246000E02760E66325640121204601F0B0
:105AC0008DFB84F850800020A064BDE8F0810000C8
:105AD0002DE9F05F82460F4690469B460A9E0C9C3D
