:020000040800F2
:10000000E04F00243104000837110008F510000803
:10001000351100089D060008B51200080000000018
:100020000000000000000000000000007103000854
:100030009F06000800000000CD03000843110008DF
:100040004B0400084B0400084B0400084B04000854
:100050004B040008391100084B0400084B04000849
:100060004B0400084B0400084B0400084B04000834
:100070004B0400084B0400084B0400084B04000824
:100080004B0400084B0400084B0400084B04000814
:100090004B0400084B0400084B0400084B04000804
:1000A0004B0400084B0400084B0400084B040008F4
:1000B0004B0400084B0400084B0400084B040008E4
:1000C0004B0400084B0400084B0400084B040008D4
:1000D0004B0400084B0400084B0400084B040008C4
:1000E0004B0400084B040008000000004B0400080B
:1000F0004B0400084B0400084B0400084B040008A4
:100100004B0400084B0400084B0400084B04000893
:100110004B0400084B0400084B0400084B04000883
:100120004B0400084B0400084B0400084B04000873
:100130004B0400084B0400084B0400084B04000863
:1001400000000000000000000000000000000000AF
:100150004B0400084B0400084B0400084B04000843
:100160004B0400084B0400084B0400084B04000833
:100170004B0400084B0400084B040008000000007A
:100180004B0400084B0400084B0400084B04000813
:100190004B0400084B0400084B0400084B04000803
:1001A0004B0400084B0400084B040008000000004A
:1001B0004B0400084B0400084B0400084B040008E3
:1001C0004B0400084B040008000000000000000081
:1001D00000000000000000004B04000800000000C8
:1001E000000000000000000000000000000000000F
:1001F00000000000000000004B0400084B04000851
:100200004B0400084B040008000000004B040008E9
:100210004B0400084B0400084B0400084B04000882
:100220004B040008000000004B0400080000000020
:100230004B0400084B040008000000004B040008B9
:100240004B0400084B0400084B0400084B04000852
:100250004B0400084B0400084B0400084B04000842
:100260004B0400084B0400084B0400084B04000832
:100270004B0400084B0400084B0400080000000079
:100280004B0400084B0400084B0400084B04000812
:10029000000000004B0400084B04000800000000B0
:1002A000000000004B0400084B0400084B04000849
:1002B0004B0400084B0400084B0400084B040008E2
:1002C0004B0400084B0400084B04000800F002F83F
:1002D00000F03EF80AA090E8000C82448344AAF1A2
:1002E0000107DA4501D100F033F8AFF2090EBAE8A0
:1002F0000F0013F0010F18BFFB1A43F0010318475A
:100300006829000088290000103A24BF78C878C105
:10031000FAD8520724BF30C830C144BF04680C600B
:10032000704700000023002400250026103A28BF53
:1003300078C1FBD8520728BF30C148BF0B60704757
:100340001FB502F06BFC00F00BF91FBD10B510BD1E
:1003500000F06CF91146FFF7F3FF01F041F800F0EF
:100360008AF903B4FFF7F2FF03BC00F091F9000033
:100370002C4B19680868B0E8F04F80F30988BFF388
:100380006F8F4FF0000080F311887047000000006D
:1003900008480068006880F308884FF0000080F388
:1003A000148862B661B6BFF34F8FBFF36F8F00DF63
:1003B00000BF00BF08ED00E0DFF80C00016841F469
:1003C00070010160704700BF88ED00E0EFF3098025
:1003D000BFF36F8F134B1A681EF0100F08BF20ED8C
:1003E000108A20E9F04F106009B44FF0500080F3FC
:1003F0001188BFF34F8FBFF36F8F01F0D9FE4FF01D
:10040000000080F3118809BC19680868B0E8F04F53
:100410001EF0100F08BFB0EC108A80F30988BFF3FC
:100420006F8F70471C000024EFF3058070470000B9
:100430000948804709480047FEE7FEE7FEE7FEE778
:10044000FEE7FEE7FEE7FEE7FEE7FEE704480549B4
:10045000054A064B70470000F5110008CD02000860
:10046000E0490024E04F0024E04B0024E04B00244E
:10047000032A40F2308010F0030C00F0158011F8D0
:10048000013BBCF1020F624498BF11F801CB00F8A8
:10049000013B38BF11F8013BA2F1040298BF00F8FC
:1004A00001CB38BF00F8013B11F0030300F06A8074
:1004B000083AC0F0088051F8043B083A51F804CBE0
:1004C000A0E80810F5E7121D5CBF51F8043B40F8A6
:1004D000043BAFF30080D20724BF11F8013B11F8B1
:1004E00001CB48BF11F8012B24BF00F8013B00F8F5
:1004F00001CB48BF00F8012B704702F0FF0343EA2D
:10050000032242EA024200F071B84FF0000200B547
:10051000134694469646203922BFA0E80C50A0E826
:100520000C50B1F12001BFF4F7AF090728BFA0E8D4
:100530000C5048BF0CC05DF804EB890028BF40F8A0
:10054000042B08BF704748BF20F8022B11F0804FE2
:1005500018BF00F8012B70477047704770470000C4
:1005600070B5064C7C44064D7D4403E02068204471
:100570008047241DAC42F9D170BD00002027000047
:100580002027000010B5203AC0F00B80B1E81850C9
:10059000203AA0E81850B1E81850A0E81850BFF46D
:1005A000F5AF5FEA027C24BFB1E81850A0E818500C
:1005B00044BF18C918C0BDE810405FEA827C24BF60
:1005C00051F8043B40F8043B08BF7047D20728BFEE
:1005D00031F8023B48BF11F8012B28BF20F8023B3D
:1005E00048BF00F8012B70474FF000020429C0F00B
:1005F000128010F0030C3FF48AAFCCF1040CBCF174
:10060000020F18BF00F8012BA8BF20F8022BA1EBA6
:100610000C01FFF77CBF5FEAC17C24BF00F8012B0F
:1006200000F8012B48BF00F8012B7047754600F019
:1006300029F8AE4605006946534620F00700854676
:1006400018B020B5FFF702FFBDE820404FF00006CC
:100650004FF000074FF000084FF0000B21F00701AA
:10066000AC46ACE8C009ACE8C009ACE8C009ACE8ED
:10067000C0098D4670470446AFF300802046FFF75F
:1006800070FE000000487047804900247047000059
:1006900001491820ABBEFEE726000200FEE77047C6
:1006A00072B6FEE701488068704700000800002429
:1006B0000248816802781144816070470800002474
:1006C000032010B500F094F800F0FCF90F4A10492F
:1006D00014681368C4F3032203F00F038A5CC95C37
:1006E00002F01F0201F01F01D0400A4A20FA01F176
:1006F0001160094908600F2000F010F808B10120CE
:1007000010BD00F02BF8002010BD00001844025866
:100710004C2C0008180000241400002470B50D4D66
:1007200004462878A0B14FF47A71B1FBF0F00A4981
:100730000968B1FBF0F000F0CAFC48B9102C07D2F0
:1007400000222146501E00F033F800206C6070BD7E
:10075000012070BD08000024140000240C4808B5D6
:10076000016841F002010160006800220F2100F0E1
:1007700002000090901E00F01BF8052100220846A0
:1007800000F016F8BDE80840052000F003B80000AE
:10079000F4440258002809DB410900F01F028900D7
:1007A000012001F1E0219040C1F8000170470000F4
:1007B0000E4BF0B41B680D46C3F30223C3F10706CA
:1007C000042E00D90426191D072901D2002300E0B8
:1007D000DB1E012404FA06F19C40491E2940641ED8
:1007E000994014402143F0BC00F065BD0CED00E0E1
:1007F000064900F0070210B54FF6FF040868044BE5
:10080000204040EA02201843086010BD0CED00E0D3
:100810000000FA05134970B50A68D243520705D59E
:10082000096801F00701814213D118E00A6822F03B
:10083000070202430A60FFF735FF0A4D4FF47A764C
:100840000446083D07E000BFFFF72CFF001BB04245
:1008500001D9012070BD2868C0438004F4D4002071
:1008600070BD00000C4802582DE9F05F04000F46EF
:100870007ED0DFF83882D8F8000000F00F00B842D0
:100880000CD2D8F8001021F00F013943C8F800103D
:10089000D8F8000000F00F00B84269D12078844DEC
:1008A00040070AD52069296801F07001884204D9FF
:1008B000296821F070010143296020787C4E361DA3
:1008C00000070AD56069316801F07001884204D9D7
:1008D000316821F07001014331602078C0060AD5EB
:1008E000A069316801F4E061884204D9316821F4DB
:1008F000E061014331602078DFF8B4B180060BF18C
:10090000080B0CD5E1695846DBF8002002F07002B4
:10091000914204D9026822F070020A4302602078F2
:1009200080070AD5E068296801F00F01884204D9E0
:10093000296821F00F01014329602078C0073ED0CB
:100940005B49A2682868183920F470601043286059
:100950006068022818D0032819D00968012819D026
:10096000490700294ADADFF848A1AAF1080A00E09D
:1009700044E0DAF8002022F007020243CAF800201F
:10098000FFF790FE814612E009688903E9E70968EC
:100990008901E6E7C905E4E7FFF784FEA0EB09015A
:1009A00041F28830814202D90320BDE8F09F61689E
:1009B000DAF8000000F03800B0EBC10FECD120787D
:1009C00080070AD5E068296801F00F01884204D247
:1009D000296821F00F0101432960D8F80010404632
:1009E00001F00F01B9420BD9016821F00F01394321
:1009F0000160006800F00F00B84201D00120D4E788
:100A0000207840070AD52069296801F070018842E2
:100A100004D2296821F07001014329602078000781
:100A20000AD56069316801F07001884204D23168EA
:100A300021F07001014331602078C0060AD5A06919
:100A4000316801F4E061884204D2316821F4E06148
:100A500001433160207880060CD5E1695846DBF807
:100A6000002002F07002914204D2026822F070026B
:100A70000A43026000F026F80E492A682B68C2F388
:100A8000032203F00F038A5CC95C02F01F0201F02D
:100A90001F01D040084A20FA01F11160074908609F
:100AA00007480068BDE8F05FFFF738BE002000523D
:100AB000184402584C2C000818000024140000248C
:100AC0000C000024454970B545480968434B103B6C
:100AD00011F0380208D00111082A03D0102A0BD0D7
:100AE000182A0BD0084670BD19688906FBD519680D
:100AF000C1F3C101C84070BD3A4870BD3749374D98
:100B000018310C1D24350A68096826682D6802F022
:100B1000030406F00102C1F30511C5F3CC0515FB72
:100B200002F200EE102AB8EE400AE9B32F4ADFEDD8
:100B30002E0AB7EE001A6CB1DFED2D1A012C01D090
:100B4000022C43D002EE101A1068F8EE422A81EE11
:100B5000A22A1EE01C68A40611D51B6801EE901A9B
:100B60001168C3F3C103F8EE612AD84001EE900A80
:100B7000C1F30800F8EE611A81EEA22A0BE001EE43
:100B8000901ADFED1C2A00BFF8EE611A106882EEA1
:100B9000A12AC0F3080001EE900AF8EE611A40EEB7
:100BA000201A31EE810A00E015E022EE000A1068FA
:100BB000C0F34620401C00EE900AF8EE600A80EE7A
:100BC000201ABCEEC10A10EE100A70BD01EE901A98
:100BD000DFED092AD8E7002070BD0000104402585C
:100BE0000090D00340787D01000000393044025865
:100BF0000024744A0024744C20BCBE4B2DE9F047FD
:100C000004007DD0FF4F2078FE4D1837DFF8F483C5
:100C1000103DC00748D0D8F80000396800F038000F
:100C2000102815D0182803D101F0030002280FD096
:100C30006068B0F5803F12D010B1B0F5A02F18D089
:100C4000286820F480302860286820F4802009E09B
:100C50002868800328D560680028D2D024E028685E
:100C600040F480302860606888B1FFF71BFD0646BD
:100C700009E0286840F480202860F0E7FFF712FDC3
:100C8000801B64287ED828688003F7D50CE0FFF726
:100C900009FD064605E000BFFFF704FD801B642840
:100CA000F0D828688003F7D42078800756D5D8F884
:100CB0000000DFF85093396810F03800A9F10C09F2
:100CC0000ED0182801D188070AD0E068A8B3296897
:100CD00021F0190101432960FFF7E4FC064628E0F2
:100CE0002868400702D5E06800288AD0E1682868B3
:100CF00020F0190008432860FFF7D4FC064606E000
:100D0000D2E000BFFFF7CEFC801B0228BAD82868CB
:100D10004007F7D5217CD9F8002022F0FE4242EAB4
:100D20000161C9F8001019E0FFF7BCFC801B022824
:100D3000A8D828684007F7D5ECE7FFE7286820F037
:100D400001002860FFF7AEFC064604E0FFF7AAFCAE
:100D5000801B022896D828684007F7D42078C00660
:100D600046D5D8F80000DFF89C92396800F03800CA
:100D7000A9F10409082812D0182805D101F00300B0
:100D8000012800E0CEE00AD0E0690028286820D0E1
:100D900040F080002860FFF785FC064615E02868D3
:100DA000C00502D5E06980287ED194F82010D9F8DA
:100DB000002022F07C5242EA0161C9F8001017E0DD
:100DC000FFF770FC801B0228A0D82868C005F7D563
:100DD000EBE720F080002860FFF764FC064604E0A3
:100DE000FFF760FC801B022890D82868C005F7D464
:100DF0002078000729D5834861696430002981463D
:100E0000016811D041F001010160FFF74BFC06467B
:100E100005E000BFFFF746FC801B022888D8D9F800
:100E200000008007F6D510E021F001010160FFF716
:100E300039FC064605E000BFFFF734FC801B0228A2
:100E400070D8D9F800008007F6D42078800623D522
:100E5000A0690028286810D040F480502860FFF76F
:100E600021FC064605E000BFFFF71CFC801B0228A2
:100E700058D828688004F7D50EE020F48050286008
:100E8000FFF710FC064604E0FFF70CFC801B02286D
:100E900048D828688004F7D42078400751D5DFF877
:100EA0006891D9F8001000E00DE141F48071C9F8B3
:100EB0000010FFF7F7FB064605E000BFFFF7F2FB67
:100EC000801B64282ED8D9F80000C005F6D54D4EF9
:100ED000A068603601280AD008B1052813D0306810
:100EE00020F001003060306820F0040002E030683B
:100EF00040F001003060A06841F2883A98B1FFF7F5
:100F0000D1FB81460AE0306840F004003060EEE733
:100F1000FFF7C8FBA0EB0901514503D830688007F3
:100F2000F6D50EE072E0FFF7BDFB814606E000BF9C
:100F3000FFF7B8FBA0EB0901514567D8306880077F
:100F4000F6D4606AF0B34146DFF8B88008F12008B3
:100F50000968C1F3C201032977D00228286820F06C
:100F60008070286003D0FFF79DFB044680E0FFF708
:100F700099FB064605E000BFFFF794FB801B0228A3
:100F800073D828688001F7D4E26A40F2F3313868F8
:100F900054F8283F884340EA021018433860217B08
:100FA0004FF4FE0C22894FF0FE47268A4902207D2D
:100FB000521E761EA1F5007189B20CEA0646C2F3F4
:100FC000080200E081E01143401E314307EA00625D
:100FD0000C4811430B4A1C30C8F800102432016839
:100FE00021F00101016011684FF6F876236AB143E0
:100FF00041EAC30111600168A26921F00C011143AB
:10100000016004E010440258004802582DE00168D5
:10101000E26921F0020111430160016841F480316D
:101020000160016841F400310160016841F48021F0
:101030000160016841F001010160286840F08070A2
:101040002860FFF72FFB044605E015E0FFF72AFBB9
:10105000001B022809D828688001F7D535E000BFB9
:10106000FFF720FB001B022802D90320BDE8F08710
:1010700028688001F4D428E039680128D8F80000F5
:1010800021D0A26A01F0030393421CD1E26AC1F3AA
:1010900005118A4217D1216BC0F30802491E8A420A
:1010A00011D1616BC0F34622491E91420BD1A16B55
:1010B000C0F30642491E914205D1E16BC0F30660C0
:1010C000491E814201D00120D0E70020CEE7401E1A
:1010D000B0F1807F10B501D3012010BD4FF0E024A6
:1010E00060610F21601700F0E6F80020A061072181
:1010F000216110BDFEE70000044A0021044810B53C
:1011000000F0B8F90349086010BD0000282C000861
:101110003B11000804000024054808B5016841F0AF
:1011200080010160006800F08000009008BD0000B0
:10113000E0440258FEE7FEE77047012000F05DF949
:10114000FBE710B5FFF7B4FA01F0B4FB012803D0B8
:10115000BDE8104001F0D8B810BD000070B59CB0DB
:101160004C216846FFF7D1F9202113A8FFF7CDF9EC
:101170000220FFF74FFB1E48016821F44041016047
:101180000168002401F440411B910168C9438904AE
:10119000FBD4022009900121C20305236826CDE972
:1011A00000120AAA082582E84900CDE90D10CDE910
:1011B00010540F9068461294FFF720FD08B172B6E4
:1011C000FEE740201A903F210301CDE9165003228B
:1011D000CDE9180313AB13A883E816001146FFF7F7
:1011E00043FB002801D072B6FEE71CB070BD0000C2
:1011F000184802582748F0B5274A016841F47001A1
:101200000160106800F00F00072804D2106820F079
:101210000F00C01D106021490020204C10340B68C5
:101220001F4D43F001030B6020600B682B400B60E7
:10123000136803F00F03072B04D9136823F00F037F
:10124000DB1D1360154C174A1834174B261D371D2C
:101250002060124C154D28343060261D3860371D33
:1012600023603B1D35601C1D3A60251D2E1D186036
:10127000331D22602860326018600A6843F2D2048D
:10128000064B0B4D22F4802260330A6018602C60FC
:10129000F0BD000088ED00E000200052004402583C
:1012A0007FEDF6EA80020101000202020000FF0168
:1012B00000400052FEE7090700284FEA116104DBF5
:1012C00000F1E02080F80014704700F00F0000F1FA
:1012D000E02080F8141D7047084810B500F064FD48
:1012E00007490020024600BF01F81020401C0828D2
:1012F000FAD3BDE81040014800F063BD00000024AF
:101300009C00002410B5040006D0094800F04CFDF4
:1013100020680178012902D072B6FFF7C1F9401C9C
:1013200000F042FDBDE81040014800F04ABD000059
:101330000000002410B5040006D0084800F034FD79
:1013400020680178012902D072B6FFF7A9F90021BF
:101350000170BDE81040014800F033BD00000024DA
:1013600010B504000DD0104800F01EFD0F480021FC
:1013700010F811203AB1491C0829F9D30A4800F0A5
:1013800020FD002010BD00EB410020600121017014
:101390002068401C04D0044800F013FD012010BD5B
:1013A00072B6FFF77DF90000000000249C000024C5
:1013B00010B5040006D0094800F0F6FC206801785A
:1013C000012902D072B6FFF76BF9401C00F0F9FC5E
:1013D000BDE81040014800F0F4BC0000000000240B
:1013E000FFF76EF9FFF7BAFEFFF796FE00F014F86C
:1013F000FFF782FE00F022F8FEE710B5EFF305815B
:1014000011B16FF0050404E04FF0000408B100F0E2
:101410001BFE204610BD0000EFF3058010B16FF0F9
:10142000050070470449086810B14FF0FF3070475D
:1014300001220A60002070476C00002410B5EFF311
:10144000058010B16FF0050010BD08480168012942
:1014500002D04FF0FF3010BD054A002182F8141D64
:101460000221016000F058FE002010BD6C00002435
:101470000BE000E02DE9FF410B464FF00005EFF3D4
:101480000581039561BB58B34FF080064FF01801FA
:101490004FF000044AB3176807B13C4697691FB183
:1014A00039467F1E382F02D21779FF0703D000205C
:1014B00004B0BDE8F081576907B1BE08D2F808C092
:1014C000BCF1000F0DD0D5685C2D18D312693AB16C
:1014D00037B18DE806103246214601F0C0F903907D
:1014E0000DE0D7685FB912694AB903AACDE90012C5
:1014F000B2B2214601F086F9012800D00395039885
:10150000D6E700002DE9F041134C0F460546E6688A
:101510002068001D00F062FC681C07D137B121680B
:10152000BDE8F0410D48091D00F0AABC2068354413
:10153000B5424560216805D2A06B091DBDE8F041A8
:1015400000F086BC606B091D00F082FCA06A854239
:1015500000D2A562BDE8F0811C0000249C05002497
:101560002DE9F041054600F097FC2D4C2D4FA06869
:10157000401CA060206810B1606930B32BE025608A
:10158000A068012827D1002606EB860007EB800023
:1015900000F050FC761C382EF6D3234800F04AFCAD
:1015A0002148143000F046FC1F48283000F042FC6F
:1015B0001D483C3000F03EFC1B48503000F03AFC27
:1015C000194860631430A06305E0E86A2168C96ABD
:1015D000814200D82560606A401C60626864E86AE5
:1015E0002169884200D9206100EB8000291D07EBAA
:1015F000800000F045FC00F06FFC606900280CD012
:101600002068E96AC06A884207D208494FF08050D2
:101610000860BFF34F8FBFF36F8FBDE8F08100000C
:101620001C000024EC0000244C05002404ED00E024
:1016300038B500F031FC104C2068C8B90F4800F0F4
:10164000F9FB0E48143000F0F5FB0C490020E16076
:1016500014312161A1F582730090A1F1B40210212F
:101660000A2000F067FE206010B105A100F0B6FC72
:10167000BDE8384000F030BC58000024A00600242B
:10168000546D72510000000030B4026C0B46002A09
:101690000BD0D0E902411144C160A14201D30168DD
:1016A000C160184630BCFEF7E3BE30BC70472DE980
:1016B000F041856B1746026C0446002682B1C7B123
:1016C000E068FEF7D5FEE168206C2268091AE16047
:1016D000914202D2A168081AE060022F16D017E0EA
:1016E0002068A8B9A06801F05DF906460020A06056
:1016F0000EE06068FEF7BCFED4E90101226C1044E4
:101700006060884204D32068606001E005B16D1E0E
:101710006D1CA5633046BDE8F08110B5044690F815
:10172000590058B101280CD002280FD0502080F366
:101730001188BFF34F8FBFF36F8FFEE7206B00F070
:10174000DFFB2046BDE8104000F0DABB10BD000012
:1017500011484FF4705110B5420706D00E49C01D14
:1017600020F00700411AC1F570510C4C00230144D0
:101770000839A4F1180221F00701C4E900030C1A8A
:1017800011604B600B60C0E9001494604FF00041A1
:101790005460516110BD0000800D002488000024B9
:1017A000144E4FF08058144CDFF85090A6F29C472E
:1017B00012E000BF00F070FBF068C568281D00F063
:1017C0000DFBA068401EA0606068401E606000F0D5
:1017D00083FB2846FFF7A1FF60680028EAD138683C
:1017E0000128F9D9C9F80080BFF34F8FBFF36F8F7D
:1017F000F2E70000880500241C00002404ED00E04E
:1018000070B51D46049C51B1C4F80020C4E90F0115
:101810000121204600F0C2FD84F84C5070BD2460C8
:10182000F4E72DE9F05F88469A4691001546DDE918
:101830000B940A9EA5228346206BFEF75EFE206B6A
:101840006FF0030101EB8501084420F007077807DA
:1018500007D0502080F31188BFF34F8FBFF36F8FF5
:10186000FEE7B8F1000F4FF000050ED0002022185F
:1018700018F8001082F8341018F8001011B1401C4C
:101880001028F4D384F8435001E084F83450382E03
:1018900000D33726E662201DC4E9136500F0D5FAAF
:1018A00004F1180000F0D1FA6565C6F13800A061B6
:1018B00084F858505246246159463846646200F014
:1018C0005BFAB9F1000F206001D0C9F80040BDE813
:1018D000F09F000030B5114900E011460A688242CD
:1018E000FBD34B685C18844203D144680846234408
:1018F0004B6043681D18954209D1084C183C246878
:10190000A24209D052681A4442600A681268026012
:10191000814200D0086030BD0460F9E788000024EF
:1019200070B50D4D914241604FF00004006106D842
:101930008169D21A8A4206D2011D286907E09A42BB
:1019400003D2994201D3012403E0011DE86800F0AD
:101950007FFA204670BD00005800002410B50446F0
:1019600000F09AFAA06B28B15FF0000400F0B4FA1E
:10197000204610BD0124F9E730B53C4D89B06BE03D
:101980000498002806DA059ADDE9060190470498D4
:10199000002861DB069C606910B1201D00F01EFA72
:1019A00003A800F0D5F8024604980A2854D2DFE8CC
:1019B00000F00505052D304705052D3094F8280069
:1019C00040F0010084F82800A06905990B46014405
:1019D0002046FFF7A5FF50B3216A2046884794F8B8
:1019E0002800400738D50020009005980023A16901
:1019F00042181946204601F0DDF8C0B9502080F3A6
:101A00001188BFF34F8FBFF36F8FFEE794F8280064
:101A10001EE094F8280040F0010084F828000598A2
:101A2000A06128B1811813462046FFF779FF13E023
:101A3000502080F31188BFF34F8FBFF36F8FFEE705
:101A400094F82800810703D4204600F059FA03E0F7
:101A500020F0010084F828002868002204A900F082
:101A6000F7FD00288CD109B030BD000058000024DB
:101A70002DE9FC410F46054600F092FB01A800F05D
:101A800067F80446019818B101F002F8BDE8FC813E
:101A9000254EAFB130690068D0B300273068291BEC
:101AA0003A4600F0AFFA00F0F3FF0028EED11F49EC
:101AB0004FF080500860BFF34F8FBFF36F8FE5E7A3
:101AC000A542EBD800F0E4FFF0682746C068C46880
:101AD000201D00F083F994F82800410719D5A0696A
:101AE0002B463A4641192046FFF71AFFA8B10020BD
:101AF0002A46034601460090204601F05BF860B993
:101B0000502080F31188BFF34F8FBFF36F8FFEE734
:101B100007E020F0010084F82800216A2046884769
:101B2000B4E70127BAE700005800002404ED00E004
:101B30000648416B096829B1416BC968C9684968A1
:101B4000816270474FF0FF31FAE700001C0000246B
:101B500070B5054600F0BCFE064E0446B0688442EF
:101B600003D200F009F8012000E0002028602046A0
:101B7000B46070BD58000024F8B5194D20E0C0686D
:101B8000C4680668201D00F029F9216A20468847AC
:101B900094F82800400713D5A0693044B04206D914
:101BA0002461211D6060E86800F052F908E000201F
:101BB0003246034601460090204600F0FBFF38B154
:101BC000E86801680029DAD12969C5E90310F8BD80
:101BD000502080F31188BFF34F8FBFF36F8FFEE764
:101BE0005800002408484068401C4FF0500080F323
:101BF000118804D0BFF34F8FBFF36F8FFEE7BFF3A1
:101C00004F8FBFF36F8FFEE790000024074CE06812
:101C1000016841B1C0680021D0F80000FFF728FF3B
:101C2000FFF7AAFEF3E701210020F7E758000024A0
:101C30002DE9F041044600F02FF994F9455004F1E4
:101C4000240609E0606A48B1304600F0E9FE08B1B8
:101C500000F028FA6D1E6DB2002DF3DC4FF0FF3658
:101C600084F8456000F038F900F016F994F9445012
:101C700004F1100709E0206948B1384600F0D0FEB1
:101C800008B100F00FFA6D1E6DB2002DF3DC84F880
:101C90004460BDE8F04100F01FB900002DE9F041BB
:101CA0000027044600F07CFA324E306808B9FFF78E
:101CB0004FFD706904424ED1C4B3083460070ED0A2
:101CC00004F00700C0F108000444600707D050206A
:101CD00080F31188BFF34F8FBFF36F8FFEE72CB3F4
:101CE0007068844237D82348183001460D6801E0F7
:101CF00028460D466968A14202D229680029F7D119
:101D000031688D4227D00768296801600837686804
:101D1000011B10290FD92819420708D0502080F341
:101D20001188BFF34F8FBFF36F8FFEE713E0416061
:101D30006C60FFF7CFFD69687068401A7060B26828
:101D4000904200D2B060002072691143C5E90001E1
:101D5000F068401CF06000F09BFE780707D0502030
:101D600080F31188BFF34F8FBFF36F8FFEE73846C4
:101D7000BDE8F0817000002470B5041F094E231FD8
:101D80004FF0807521F0010125601C1F1960A0F142
:101D900020010B1F266044380A606FF002051D60A9
:101DA00070BD0000E51B0008002810B502D0EFF35D
:101DB000058010B172B6FEF773FCBDE8104000F06C
:101DC000EFB9002810B502D0EFF3058010B172B65C
:101DD000FEF766FCBDE8104000F05ABED0E90132C3
:101DE00001699A60D0E901235A604A68824201D1B0
:101DF00082684A60002202610868401E0860086824
:101E00007047000010B5044C8023046004F15C00AE
:101E10000860136010BD0000C806002410B5044C13
:101E20004FF48073046004F15C000860136010BD1F
:101E3000240900244FF0FF3300F108010022C0E91B
:101E400001130260C16001617047002101617047A8
:101E500030B50B685A1C02D000F1080202E002699A
:101E600004E02246546825689D42FAD953684B60C5
:101E700099608A60516008610168491C016030BD49
:101E800042684A6093688B6093685960916008610A
:101E90000168491C01607047502080F31188BFF32E
:101EA0004F8FBFF36F8F0A494868401C4860012874
:101EB0000CD10848006810F0FF0F07D0502080F3C5
:101EC0001188BFF34F8FBFF36F8FFEE7704700009D
:101ED0009000002404ED00E00849486828B1401E45
:101EE000486001D180F311887047502080F3118839
:101EF000BFF34F8FBFF36F8FFEE700009000002409
:101F000070B500282AD0164DA0F1080461686869F0
:101F1000014207D1502080F31188BFF34F8FBFF3E8
:101F20006F8FFEE722683AB1502080F31188BFF32B
:101F30004F8FBFF36F8FFEE78143616000F030F990
:101F400060686968084468602046FFF7C3FC286938
:101F5000401C2861BDE8704000F09ABD70BD0000D3
:101F6000700000244FF0E020002101614FF47A72EC
:101F70008161072303490968B1FBF2F1491E416100
:101F8000036170471400002410B5FEF74DFA1149A3
:101F900010280ED300F1E0200A7890F8F003904268
:101FA00007D2502080F31188BFF34F8FBFF36F8F9C
:101FB000FEE709488968006800F4E060884207D9B4
:101FC000502080F31188BFF34F8FBFF36F8FFEE770
:101FD00010BD0000900000240CED00E0084B5FF005
:101FE000000210B553F832401CB1521C082AF9D334
:101FF00010BD03EBC20443F83210606010BD000056
:10200000AC00002470B515460E460446FFF744FFA9
:1020100094F944100020491C01D184F8440094F93B
:102020004510491C01D184F84500FFF755FFA06B0E
:1020300028B904F124002A46314600F051F8204620
:10204000BDE87040FFF7F4BD020010B514D00F4892
:10205000006B38B1502080F31188BFF34F8FBFF36E
:102060006F8FFEE700F09CF800211046FFF74AFA58
:1020700000F00EFD002807D105494FF080500860A0
:10208000BFF34F8FBFF36F8F10BD00001C00002403
:1020900004ED00E002490A6A0260C96841607047C5
:1020A0001C00002401490120C86170471C00002465
:1020B00010B50C4650B1094909681831FFF7C8FE40
:1020C0002046BDE810400121FFF71CBA502080F3E4
:1020D0001188BFF34F8FBFF36F8FFEE71C00002402
:1020E00070B514460D4668B10A4909681831FFF702
:1020F000C7FE0CB14FF0FF3521462846BDE87040C1
:10210000FFF700BA502080F31188BFF34F8FBFF361
:102110006F8FFEE71C00002430B587B0002405AAAD
:1021200004A9039403A80494FFF76CFEDDE90301FE
:1021300000940023CDE90110174815A1059A00F07D
:102140008EFB164D0028E8621FD000F003FD012829
:1021500009D0401C19D1502080F31188BFF34F8F54
:10216000BFF36F8FFEE7502080F31188BFF34F8FCE
:10217000BFF36F8F01214FF0FF30A8626961EC60FF
:1021800007B0BDE8304000F045B807B030BD0000F2
:1021900049444C4500000000A11700081C00002421
:1021A0000248016B491C0163704700001C000024B9
:1021B000164810B5016B11B10121C16110BD00219C
:1021C000C161134A016901E0B9B1491E01EB810304
:1021D00052F82330002BF7D001EB810302EB83028E
:1021E00002F1080453685B685360A34201D15B6845
:1021F0005360DA680260016110BD502080F31188DD
:10220000BFF34F8FBFF36F8FFEE700001C00002469
:10221000EC00002437481CB5374902688A4207D1D0
:10222000502080F31188BFF34F8FBFF36F8FFEE70D
:1022300031490068491E884207D1502080F3118837
:10224000BFF34F8FBFF36F8FFEE72C49FF200A7853
:102250000192087008788DF800009DF800209DF824
:10226000000002F0F002824207D0502080F3118873
:10227000BFF34F8FBFF36F8FFEE79DF8002007205D
:102280001F4C02F050022270A06005E09DF8002073
:1022900052008DF80020401E9DF800201206F5D453
:1022A0000328A06007D0502080F31188BFF34F8F20
:1022B000BFF36F8FFEE74FF44070A0600198087085
:1022C0000C482030016841F470010160016841F060
:1022D00070410160FFF746FE00206060FEF76CF879
:1022E0000848016841F040410160FEF751F80020C4
:1022F0001CBD000000ED00E071C20F4100E400E0F1
:102300009000002434EF00E0502010B580F31188D5
:10231000BFF34F8FBFF36F8F00F0E0FA18B104499D
:102320004FF080500860002080F3118810BD00003D
:1023300004ED00E0F8B5069D18B153B1CAB181B102
:1023400020E0502080F31188BFF34F8FBFF36F8FD1
:10235000FEE7502080F31188BFF34F8FBFF36F8FDC
:10236000FEE7502080F31188BFF34F8FBFF36F8FCC
:10237000FEE739B1502080F31188BFF34F8FBFF3D0
:102380006F8FFEE750241C46012683F846600093B9
:102390002B46FFF735FA2046F8BD00002DE9F0473F
:1023A00004008A4629D0FFF777FD21680025D4E98B
:1023B0000F23D4F840C004F1100810460E46401E0A
:1023C0004FF0FF3902FB031200FB0C10BAF1000FB3
:1023D000A563666084F8449084F84590C4E90220BF
:1023E00013D04046FFF726FD04F12400FFF722FD3D
:1023F000FFF772FD0120BDE8F087502080F31188BF
:10240000BFF34F8FBFF36F8FFEE720690028EFD037
:10241000404600F005FB0028EAD004494FF0805008
:102420000860BFF34F8FBFF36F8FE1E704ED00E06B
:102430002DE9FF4704001D4682B08A464FF0000890
:1024400003D0BAF1000F08D011E0502080F31188BA
:10245000BFF34F8FBFF36F8FFEE7206C38B1502072
:1024600080F31188BFF34F8FBFF36F8FFEE7022D0C
:102470000AD1E06B012807D0502080F31188BFF308
:102480004F8FBFF36F8FFEE700F014FA3F4F4FF00E
:1024900080564FF0000948B9049838B1502080F3B5
:1024A0001188BFF34F8FBFF36F8FFEE7FFF7F4FC88
:1024B000A06BE16B884207D3022D05D00498D0B100
:1024C000B8F1000F1AD01EE02A4651462046FFF709
:1024D000EEF8616A19B104F1240000F0A1FA20B10C
:1024E0003E60BFF34F8FBFF36F8FFFF7F5FC012006
:1024F00006B0BDE8F087FFF7EFFC22E06846FFF783
:10250000C9FD4FF00108FFF7E7FCFFF749FEFFF7B1
:10251000C3FC94F94400401C01D184F8449094F920
:102520004500401C01D184F84590FFF7D5FC04A973
:10253000684600F02BF930B12046FFF779FB00F038
:10254000A7FA0020D4E7FFF7A7FCA06BE16B884255
:1025500013D1FFF7C1FC049904F11000FFF7A8FDA7
:102560002046FFF765FB00F093FA00289ED13E60FD
:10257000BFF34F8FBFF36F8F98E7FFF7ADFC204697
:10258000FFF756FB00F084FA90E7000004ED00E04E
:102590002DE9F04704001F469046894603D0B9F163
:1025A000000F08D011E0502080F31188BFF34F8F47
:1025B000BFF36F8FFEE7206C38B1502080F3118895
:1025C000BFF34F8FBFF36F8FFEE7022F0AD1E06B8F
:1025D000012807D0502080F31188BFF34F8FBFF33D
:1025E0006F8FFEE7FFF7D0FC5020EFF3118680F3EA
:1025F0001188BFF34F8FBFF36F8FA06BE16B8842E1
:1026000006D3022F04D0002086F31188BDE8F0879E
:1026100094F94550A06B3A4649462046FFF747F8E3
:10262000681C04D06D1C84F845500120ECE7606AFA
:102630000028FAD004F1240000F0F2F90028F4D0C8
:10264000B8F1000FF1D00121C8F80010EDE700004B
:102650002DE9F74704008A4683B04FF0000603D007
:10266000BAF1000F08D011E0502080F31188BFF3B9
:102670004F8FBFF36F8FFEE7206C38B1502080F38F
:102680001188BFF34F8FBFF36F8FFEE700F012F991
:10269000DFF8F4804FF080574FF0000948B90598F3
:1026A00038B1502080F31188BFF34F8FBFF36F8F85
:1026B000FEE7FFF7F1FBA56BC5B151462046FEF7DB
:1026C000E3FF6D1EA563206950B104F1100000F016
:1026D000A7F928B1C8F80070BFF34F8FBFF36F8F11
:1026E000FFF7FAFB012006B0BDE8F087059808B1B6
:1026F0001EB106E0FFF7F0FB27E06846FFF7CAFCD3
:102700000126FFF7E9FBFFF74BFDFFF7C5FB94F947
:102710004400401C01D184F8449094F94500401CC9
:1027200001D184F84590FFF7D7FB05A9684600F072
:102730002DF8002820460AD0FFF77AFA00F0A8F911
:102740002046FFF70BF90028B3D00020CBE7FFF7B6
:1027500005F990B1059904F12400FFF7A9FC204682
:10276000FFF766FA00F094F90028A2D1C8F80070CB
:10277000BFF34F8FBFF36F8F9BE72046FFF758FAE9
:1027800000F086F995E7000004ED00E02DE9F04146
:1027900005000C4612D0CCB1FFF77EFB184E206826
:1027A000F268471C6B68A2EB030117D02F68366AEA
:1027B000B74215D0934213D801251CE0502080F376
:1027C0001188BFF34F8FBFF36F8FFEE7502080F368
:1027D0001188BFF34F8FBFF36F8FFEE700250AE02C
:1027E000884205D9401A20602846FFF753FCF5E7D8
:1027F000002020600125FFF76FFB2846BDE8F0812F
:102800001C0000242DE9FF5F994616468A46834640
:102810009000DDE90E87FFF741FA05001CD05C202F
:10282000FFF73CFA040014D00020256384F8590017
:102830004B46CDE90087CDE9024032465146584625
:10284000FEF7EFFF2046FEF78BFE012004B0BDE847
:10285000F09F2846FFF754FB4FF0FF30F6E7F0B546
:1028600085B0DDE90B740A9DA7B1DCB15C26276356
:10287000022684F85960002703970DF1100C00958B
:10288000CDE901C4FEF7CDFF2046FEF769FE0498AE
:1028900005B0F0BD502080F31188BFF34F8FBFF318
:1028A0006F8FFEE7502080F31188BFF34F8FBFF387
:1028B0006F8FFEE70548416919B1006B18B1002020
:1028C0007047012070470220704700001C00002460
:1028D0000148C068704700001C0000242DE9F04149
:1028E0002E4C206B002728B1A069401CA0613846FF
:1028F000BDE8F081E668761CE66013D1606B006885
:1029000038B1502080F31188BFF34F8FBFF36F8F22
:10291000FEE7606BA16B6163A063206A401C2062CC
:10292000FFF706F9DFF87880A06A864209D3606B6A
:102930000068A0B1606BC068C5686868864211D243
:10294000A0622068C06A00EB800158F821000128CD
:1029500000D90127E0690028C9D00127C7E74FF057
:10296000FF30EDE7281DFFF739FAA86A18B105F125
:102970001800FFF733FAE86A2169884200D920611C
:1029800000EB800108EB8100291DFFF779FA206830
:10299000E96AC06A8142CAD30127C8E71C00002443
:1029A000EC00002470B504464FF0000190B31A4DBE
:1029B0002868844207D0502080F31188BFF34F8FDE
:1029C000BFF36F8FFEE7206D38B1E36C401EE26A03
:1029D00020659A421ED040B11CE0502080F311883F
:1029E000BFF34F8FBFF36F8FFEE7201DFFF7F6F9A0
:1029F000E06CC0F13801A161E0622969884200D928
:102A0000286100EB8000054901EB8000211DFFF7E4
:102A100037FA0121084670BD1C000024EC00002498
:102A200070B5C068C46854B104F118000646FFF7D9
:102A3000D5F9144D286B50B11348314615E050209C
:102A400080F31188BFF34F8FBFF36F8FFEE7201D18
:102A5000FFF7C4F9E06A2969884200D9286100EBD0
:102A600080000A4901EB8000211DFFF709FAE06AA6
:102A70002968C96A884203D90121E961084670BD05
:102A8000002070BD1C00002474050024EC0000240C
:102A90002DE9F0472C4D286B0024274638B1FFF76D
:102AA000FBF9286B401E2863286B40B147E050209B
:102AB00080F31188BFF34F8FBFF36F8FFEE7234E74
:102AC0000120A968D9B3A6F5916980463068E0B1C4
:102AD000F068C46804F11800FFF780F9201DFFF7C3
:102AE0007DF9E06A2969884200D9286100EB8001FC
:102AF00009EB8100211DFFF7C3F9E06A2968C96A63
:102B00008842E3D3C5F81C80E0E70CB1FFF710F86A
:102B1000AC694CB14FEA0806FFF7E0FE00B1EE6188
:102B2000641EF9D10020A861E86940B10849012775
:102B30004FF080500860BFF34F8FBFF36F8FFFF7E8
:102B4000CBF93846BDE8F0871C000024740500244A
:102B500004ED00E010B586B0FEF76AFD114C206868
:102B6000B8B10020039005AA049004A903A8FFF7B8
:102B700055F9DDE90321022000238DE807000C4808
:102B800009A1059AFFF76BFE606010B106B0012045
:102B900010BD502080F31188BFF34F8FBFF36F8FAC
:102BA000FEE7000058000024546D72205376630045
:102BB0000D1C00082DE9FF411E46134602004FF090
:102BC00000000A9D16D0144C2768002F0FD006294C
:102BD0000292CDE9001317DAFFF76CFE02284FF0DE
:102BE00000030FD0002220686946FFF721FC04B0E3
:102BF000BDE8F081502080F31188BFF34F8FBFF301
:102C00006F8FFEE72A46EEE70023324669463846D4
:102C1000FFF7BEFCEBE70000580000244FF04070C7
:102C2000E1EE100A704700005C2C00080000000074
:102C30000000000000000000000000000002000092
:102C4000180000000000000000000000000000006C
:102C500001020304010203040607080964656661B2
:102C6000756C745461736B008C2C00080000002498
:102C70009C00000008030008282D00089C00002488
:102C8000444F00002403000851E6FFFF000000004D
:102C90000000000001000000100000000000000023
:102CA0000090D0030090D00300000000000000005E
:102CB0000000000000000000000000000000000014
:102CC0000000000000000000000000000000000004
:102CD00000000000000000000000000000000000F4
:102CE00000000000000000000000000000000000E4
:102CF00000000000000000000000000000000000D4
:102D000000000000000000000000000000000000C3
:102D100000000000000000000000000000000000B3
:082D2000AAAAAAAA0000000003
:04000005080002CD20
:00000001FF
